:020000040000fa
:080000000001040000000000f3
:020000040000fa
:100200004f82200000ff2000000188000000000055
:100210000c000700e063200001002000110007002f
:10022000000020000000e000020032000000020098
:100230000000000008060200000000000040da0094
:100240000000fe004440a900800720000000e000fc
:100250000300320000002000a00188004440a800f4
:100260000000060091018800800078000000eb008b
:1002700015003700e280400032a0b4009101ba00be
:10028000e280400032a0b4009102ba00e280400057
:1002900032a0b4000002eb00472bde00f507b200ed
:1002a000602ce10004003a000059eb008301e900f2
:1002b000fdff3e00040037006128e100010032002c
:1002c0000082eb00040007001101ba000200e00008
:1002d000e8ff3a00000006003159ba008301e90046
:1002e0000c0032002159ba008301e90008003200f5
:1002f0000400e00003003a00e280400032a0b400b5
:10030000f5ff370011d9ba008301e900faff3a007e
:100310008100e800e180400032a0b4000000060047
:100320000cc2bf0066406000e64f500002003a0079
:10033000901080000000060090108000f00fb200c6
:10034000000006000ec2bf00610060000000060051
:10035000800078000cc2bf0066406000e64f50008d
:1003600001003200f10fb200811088000000060089
:100370000fc2bf000004a200610060000000060080
:1003800080007800000178000cc2bf006640600069
:10039000e64f500010003a00050037000fc2bf00c2
:1003a0000018a300fdff3a00821088008180e80059
:1003b000110178000200e000f8ff3a00000006009a
:1003c0000fc2bf000018a300fdff3a000100fb00b0
:1003d000801088000201e800924078000104e000eb
:1003e000f7ff3a00000006008520a9008540a9001b
:1003f000e7416000c419dd008109200091407800c8
:10040000f2c8b30082c0600083c070008000fd00ad
:1004100098e0b7008000fd00800178000307b2007b
:10042000c419de00910920009140780082cfb3000a
:1004300082c0600083c070008000fd0099e0b700ba
:100440008000fd00680160004311de0002414100b0
:10045000d1082000914078000114a10082c07000f2
:100460008000fd008de0b7008000fd000008b200b4
:100470004700de004200dd00d108200091407800f6
:100480000124a10080c07000010078008de0b70059
:040490000000060062
:020000040000fa
:100008007a0600007a0600007a0600007a060000e8
:100018007a0600007a0600007a0600007a060000d8
:100028007a0600007a0600007a0600007a060000c8
:100038007a0600007a0600007a0600007a060000b8
:100048007a060000c20200007a0600007a06000064
:100058007a0600007a0600007a0600007a06000098
:100068007a0600007a0600007a0600007a06000088
:100078007a0600007a0600007a0600007a06000078
:100088007a0600007a0600007a0600007a06000068
:100098007a0600007a0600007a0600007a06000058
:1000a8007a0600007a0600007a0600007a06000048
:1000b8007a0600007a0600007a0600007a06000038
:1000c8007a0600007a0600007a0600007a06000028
:1000d8007a0600007a0600007a0600007a06000018
:1000e8007a0600007a0600007a0600007a06000008
:0800f8007a0600007a06000000
:020000040000fa
:100108007a0600007a0600007a0600007a060000e7
:100118007a0600007a0600007a0600007a060000d7
:100128007a0600007a0600007a0600007a060000c7
:100138007a0600007a0600007a0600007a060000b7
:100148007a060000c20200007a0600007a06000063
:100158007a0600007a0600007a0600007a06000097
:100168007a0600007a0600007a0600007a06000087
:100178007a0600007a0600007a0600007a06000077
:100188007a0600007a0600007a0600007a06000067
:100198007a0600007a0600007a0600007a06000057
:1001a8007a0600007a0600007a0600007a06000047
:1001b8007a0600007a0600007a0600007a06000037
:1001c8007a0600007a0600007a0600007a06000027
:1001d8007a0600007a0600007a0600007a06000017
:1001e8007a0600007a0600007a0600007a06000007
:0801f8007a0600007a060000ff
:020000040000fa
:100494002d200000436f00006d6d0000616e0000b0
:1004a4006420000041630000636500007074000074
:1004b400656400002e0a00000a0d00000000000020
:1004c4002d2000004241000044200000436f000042
:1004d4006d6d0000616e0000642e00000a0a0000c9
:1004e4000d000000002d0000205500007361000085
:1004f400676500003a200000762000005b6300007e
:10050400686100006e6e0000656c00002028000029
:10051400302d0000312900005d2000005b760000d2
:100524006f6c000074610000676500002028000003
:10053400312e0000302000002d200000372e000056
:10054400302900005d0a00000a0d000000000000d0
:100554002d200000496e0000766100006c690000e7
:100564006420000043680000616e00006e650000b6
:100574006c2e00000a0a00000d00000000000000bc
:020000040000fa
:100584003600f800809fbe00829fbe00849fbe009c
:10059400869fbe00881f78000000fa008520a9000d
:1005a4000f00370000418000f4004000e04080006c
:1005b400808f50000300320022c8bf00e14f50007a
:1005c40002003a0055ff070005003700e8408000ac
:1005d40052ff0700004c78000800e800e040880063
:1005e40057ff07000004e000eeff3a000080fa0025
:1005f4004f0478004f03be004f02be004f01be00ff
:100604004f00be003600f900004006000200fa0068
:1006140000418000f4004000f0408000808f5000d2
:1006240005003a0000418000f0408800f04080005e
:10063400e04088003b003700e1408000f04080004b
:10064400808f50003700360022c8bf000004e0004d
:1006540034003a00f0408000104078000000fb00b5
:100664003aff0700f1408000114078000000fb00d1
:10067400000f78000100e800f04088001e007800b8
:10068400ea0f5000240032001e007800ed0f5000e5
:10069400190032001e007800e80f500001003200fb
:1006a4001d003700004180008000e800f040800019
:1006b400808f50000a0031000002200023ff070051
:1006c4008000200021ff0700f04080000080e90046
:1006d400f0408800f0408000e04088000e003700c1
:1006e400f04080000000e900f0408800f040800005
:1006f400e040880008003700a000200013ff070036
:1007040000418000f0408800f0408000e040880014
:1007140010c0b30022e8b70014ff07000004e00093
:10072400fdff3a000080fa00000006000e00fa0007
:10073400100798000000eb00000f78001e009000e6
:100744000000e80090407800e0c2b30080cf500081
:10075400030032000000eb002007980081003700fe
:100764001e009000104078008000fb001e009000e6
:100774000000e800100798006109b90000fd2f008f
:10078400f1ff2f00020140008381480032079800e6
:100794004307980090002000010020003e019000d3
:1007a400ce019000800f5100818f59002b003e0034
:1007b4003e009000ce009000006001000900370068
:1007c4000b0037000d0037000f0037001100370011
:1007d40013003700150037001700370019003700e1
:1007e4001b0037000000eb00000f78001d003700ed
:1007f40000102000000f78001a00370000202000ad
:10080400000f78001700370000302000000f780038
:100814001400370000402000000f7800110037005a
:1008240000502000000f78000e0037000060200008
:10083400000f78000b00370000702000000f7800d4
:100844000800370000802000000f78000500370002
:1008540000902000000f7800020037000000eb0039
:10086400000f78001e0090000000e80010079800b8
:100874001e009000104078000000fb006101b900e8
:1008840000fd2f00f1ff2f0002014000838148008a
:100894005207980063079800900020000100200090
:1008a4005e019000ee019000800f5100818f59008d
:1008b40028003e005e009000ee0090000060010001
:1008c40026003700080037000a0037000c00370004
:1008d4000e003700100037001200370014003700f4
:1008e40016003700180037009e0078007a8f400009
:1008f4001a003700320320001e0f41001700370092
:10090400d30420001e8f410014003700600620002d
:100914001e0f400011003700010820001e8f400008
:100924000e003700a20920001e0f41000b00370003
:10093400330b20001e8f410008003700d00c20002c
:100944001e0f400005003700610e20001e8f40007e
:10095400020037000000eb00000f78001e01780051
:10096400220798002e0090000080fa000000060084
:100974008e00fa000e80e800a12428001700090068
:10098400315878008001b1007a0047002126280000
:1009940012000900315878003001b100d002200063
:1009a4000e00400051272800340009003158780017
:1009b4005003b100200620000e004000a12a2800a8
:1009c40016000900315878007001b1007a0f470011
:1009d40022c8bf00e14f50007e003a00f140800081
:1009e400114078000000fb00608798000100e800d7
:1009f400f040880090062000ee809000808f500028
:100a04006400320060072000ee809000808f500068
:100a14000100320064003700f0408000104078008c
:100a2400ed4f500004003200f04080001040780088
:100a3400ea4f500003003a00d0022000000f4700a4
:100a440059003700f1408000518798005e80900083
:100a5400904078000040eb00004f990000c2b300c2
:100a640080cf500002003a0011c0b300014f99003a
:100a7400de8090000100e800f04088000e489100fc
:100a84000004e00041003200f14080001140780091
:100a94000000fb00308798000100e800f040880067
:100aa40000032000be809000808f500005003200bb
:100ab40010032000be809000808f50001a00320086
:100ac4002f003700f0408000208798002e8090008f
:100ad400904078000040eb002047990000c2b3002a
:100ae40080cf500002003a0011c0b30021479900a2
:100af400ae8090000100e800f04088002e40910094
:100b04000004e00005003200900720000e004000c1
:100b140006ff07000e8fe80023003700d1022000f3
:100b2400010f470020003700f04080000087980044
:100b34000e809000904078000040eb0060ff980029
:100b440000c2b30080cf500002003a0011c0b300cd
:100b540061ff98008e8090000100e800f04088005a
:100b64006ef890000004e000020032000e8fe800ee
:100b74000d003700d1022000010f47000a003700a2
:100b840020062000000f4700070037007a0f4700b7
:100b94000500370090042000ecfd0700f3fd07007a
:100ba4000004e000fdff3a0000418000f0408800ae
:100bb400f0408000e04088001e007800effd070050
:100bc400eafd07000004e000fdff3a000040eb00ee
:100bd40022e8b7000080fa00000006000000fa00d6
:100be400e0f02f00fffd07000000280060108800df
:100bf4000040200070108800f0002000a010880041
:100c04000000eb000080fa00000006000000fa007b
:100c140011000700a040800050168800a04080000a
:100c2400e40f50000300340010002000a0408800ae
:100c340003003700a040800000004000a04088006e
:100c4400b0408000c14080001b0007006ffe070019
:100c540047ff0700efff37000000fa000000eb0039
:100c640030168800f0ff200040158800dbff0700e5
:080c74000080fa0000000600f8
:020000040000fa
:100c7c001408000008000000020000000100400001
:100c8c000d030000000000001c080000080000001c
:100c9c00020000000008000008000800000000002e
:100cac00000800001400000000000000000000001c
:020000040000fa
:100cbc00f03fb1000180b10006003500ee030900e1
:100ccc0000000000403fb1000180b100fbff3d007f
:100cdc001000b000203fb000020035000080090079
:080cec000000000000000600fa
:020000040000fa
:040cf4000000fe00fe
:00000001FF
