:020000040000fa
:080000000001040000000000f3
:020000040000fa
:100200004f892000a0fe20000001880000000000af
:100210000c000700a0f120000100200011000700e1
:10022000000020000000e000020032000000020098
:10023000000000007a0f0200000000000040da0019
:100240000000fe004440a900400420000000e0003f
:100250000300320000002000a00188004440a800f4
:100260000000060091018800800078000000eb008b
:1002700015003700e280400032a0b4009101ba00be
:10028000e280400032a0b4009102ba00e280400057
:1002900032a0b4000002eb00472bde00f507b200ed
:1002a000602ce10004003a000059eb008301e900f2
:1002b000fdff3e00040037006128e100010032002c
:1002c0000082eb00040007001101ba000200e00008
:1002d000e8ff3a00000006003159ba008301e90046
:1002e0000c0032002159ba008301e90008003200f5
:1002f0000400e00003003a00e280400032a0b400b5
:10030000f5ff370011d9ba008301e900faff3a007e
:100310008100e800e180400032a0b4000000060047
:10032000881f78008a1f78004400f800080f20001a
:10033000280288000004900010059000a0009000a2
:1003400030019000c00190000300ca000280ca0082
:100350000030cb001a00cd004604c3000100ca00e3
:100360004604c0001e04c0000605c0000100cd0008
:1003700021009800050d7800eaba9700052578005d
:100380004400f9004f0578004f0478000000060093
:10039000801f78004000b0000008eb004f0078009c
:1003a000801f7800100090000018eb000018eb0090
:1003b0000008eb004f007800000006004400f80041
:1003c000020f200022028800910078003000ca004d
:1003d0003080ca000000cb002080ca000000cb00a3
:1003e0003100cd004000ca000000cb000000cb006f
:1003f0000010cb003100cd001180cc004400f9008a
:10040000000006000cc2bf0066406000e64f5000ce
:1004100002003a009010800000000600901080005a
:10042000f00fb200000006000ec2bf0061006000c5
:1004300000000600800078000cc2bf00664060002b
:10044000e64f500001003200f10fb2008110880029
:10045000000006000fc2bf000004a200610060009f
:10046000000006000001780084c1bf006600600043
:100470008080eb00e60f500002003a00020c88007a
:1004800011002000010078000000060080007800c4
:10049000000178000cc2bf0066406000e64f5000cb
:1004a00010003a00050037000fc2bf000018a3007b
:1004b000fdff3a00821088008180e8001101780079
:1004c0000200e000f8ff3a00000006000fc2bf0083
:1004d0000018a300fdff3a000100fb008010880017
:1004e0000201e800924078000104e000f7ff3a00c2
:1004f000000006008520a9008540a900e7416000b2
:10050000c419dd008109200091407800f2c8b300d1
:1005100082c0600083c070008000fd0098e0b700da
:100520008000fd00800178000307b200c419de00de
:10053000910920009140780082cfb30082c0600012
:1005400083c070008000fd0099e0b7008000fd00ce
:10055000680160004311de0002414100d108200023
:10056000914078000114a10082c070008000fd005d
:100570008de0b7008000fd000008b2004700de00fb
:100580004200dd00d1082000914078000124a10044
:1005900080c07000010078008de0b7000000060008
:1005a0008460a900e7416000c419dd005109200002
:1005b00091407800f2c8b30082c0600083c0700030
:1005c0008000fd0095e0b7008000fd00680060003d
:1005d0004300de004300dd00c108200091407800a8
:1005e0000134a10080c07000010078008ce0b700e9
:1005f000000006000021ef00110888002008880094
:100600000000060084c0a900e741600071092000d5
:100610009140780082cfb30082c0600083c0700038
:100620008000fd0097e0b7008000fd0068006000da
:100630004300de004600dd00c10820009140780044
:100640000164a10080c07000010078008ce0b70058
:10065000000006000621ef0061088800800888007d
:100660001061a900000006000080fb0000004000af
:1006700001282000608078000000060084e0a900c6
:10068000e7416000c419dd00710920009140780045
:10069000f2c8b30082c0600083c070008000fd001b
:1006a00097e0b7008000fd00680060004300de00b6
:1006b0004700dd00c1082000914078000174a100ce
:1006c00080c07000010078008ce0b70000000600d8
:1006d0000a21ef00710888009008880000000600d9
:1006e0008c40a90080cfb3008461b6008440a9008b
:1006f000000006008440a900e74160005109200085
:100700009140780082cfb30082c0600083c0700047
:100710008000fd0095e0b7008000fd0068006000eb
:100720004300de004200dd00c10820009140780057
:100730000124a10080c07000010078008ce0b700a7
:10074000000006000002780080cfb3008461b6008c
:10075000010c8800120c8800240c880000000600a0
:020000040000fa
:10000800900f0000900f0000900f0000900f00006c
:10001800900f0000900f0000900f0000900f00005c
:10002800900f0000900f0000900f0000740a00006d
:10003800900f0000900f0000980a0000900f000039
:10004800900f0000f4030000900f00005a0e00000b
:10005800900f0000900f0000900f0000900f00001c
:10006800900f0000900f0000900f0000900f00000c
:10007800900f0000900f0000900f0000900f0000fc
:10008800900f0000900f0000900f0000900f0000ec
:10009800900f0000900f0000900f0000900f0000dc
:1000a800900f0000900f0000900f0000900f0000cc
:1000b800900f0000900f0000900f0000900f0000bc
:1000c800900f0000900f0000900f0000900f0000ac
:1000d800900f0000900f0000900f0000900f00009c
:1000e800900f0000900f0000900f0000900f00008c
:0800f800900f0000900f0000c2
:020000040000fa
:10010800900f0000900f0000900f0000900f00006b
:10011800900f0000900f0000900f0000900f00005b
:10012800900f0000900f0000900f0000740a00006c
:10013800900f0000900f0000980a0000900f000038
:10014800900f0000f4030000900f00005a0e00000a
:10015800900f0000900f0000900f0000900f00001b
:10016800900f0000900f0000900f0000900f00000b
:10017800900f0000900f0000900f0000900f0000fb
:10018800900f0000900f0000900f0000900f0000eb
:10019800900f0000900f0000900f0000900f0000db
:1001a800900f0000900f0000900f0000900f0000cb
:1001b800900f0000900f0000900f0000900f0000bb
:1001c800900f0000900f0000900f0000900f0000ab
:1001d800900f0000900f0000900f0000900f00009b
:1001e800900f0000900f0000900f0000900f00008b
:0801f800900f0000900f0000c1
:020000040000fa
:100760002d200000436f00006d6d0000616e0000e1
:1007700064200000416300006365000070740000a5
:10078000656400002e0a00000a0d00000000000051
:100790002d2000004241000044200000436f000073
:1007a0006d6d0000616e0000642e00000a0a0000fa
:1007b0000d00000000000000f1f20000f4f800005d
:1007c000f1f30000f2f60000f4fc0000f8f900007c
:1007d0001f2f00004f8f00001f3f00002f6f0000f1
:0807e0004fcf00008f9f0000c5
:020000040000fa
:1007e8003600f800809fbe00829fbe00849fbe0036
:1007f800869fbe00881f78000000fa008520a900a7
:100808000f00370010448000f4004000f0438000df
:10081800808f50000300320084c8bf00e14f5000b1
:1008280002003a00f5fe070005003700f843800093
:10083800f2fe0700004c78000800e800f04388004a
:10084800f7fe07000004e000eeff3a000080fa001f
:100858004f0478004f03be004f02be004f01be0098
:100868004f00be003600f900004006000200fa0002
:1008780010448000f400400000448000808f500045
:1008880005003a00104480000044880000448000bd
:10089800f04388003b003700f143800000448000ab
:1008a800808f50003700360084c8bf000004e00085
:1008b80034003a0000448000104078000000fb003b
:1008c800dafe070001448000114078000000fb00b8
:1008d800000f78000100e800004488001e0078003e
:1008e800ea0f5000240032001e007800ed0f50007f
:1008f800190032001e007800e80f50000100320095
:100908001d003700104480008000e800004480008b
:10091800808f50000a00310000022000c3fe07004b
:1009280080002000c1fe0700004480000080e9002c
:100938000044880000448000f04388000e0037001f
:10094800004480000000e900004488000044800062
:10095800f043880008003700a0002000b3fe07001d
:10096800104480000044880000448000f043880060
:1009780010c0b30084e8b700b4fe07000004e0002c
:10098800fdff3a000080fa00000006000e00fa00a1
:10099800100798000000eb00000f78001e00900080
:1009a8000000e80090407800e0c2b30080cf50001b
:1009b800030032000000eb00200798008100370098
:1009c8001e009000104078008000fb001e00900080
:1009d8000000e800100798006109b90000fd2f0029
:1009e800f1ff2f0002014000838148003207980080
:1009f8004307980090002000010020003e0190006d
:100a0800ce019000800f5100818f59002b003e00cd
:100a18003e009000ce009000006001000900370001
:100a28000b0037000d0037000f00370011003700aa
:100a3800130037001500370017003700190037007a
:100a48001b0037000000eb00000f78001d00370086
:100a580000102000000f78001a0037000020200046
:100a6800000f78001700370000302000000f7800d2
:100a78001400370000402000000f780011003700f4
:100a880000502000000f78000e00370000602000a2
:100a9800000f78000b00370000702000000f78006e
:100aa8000800370000802000000f7800050037009c
:100ab80000902000000f7800020037000000eb00d3
:100ac800000f78001e0090000000e8001007980052
:100ad8001e009000104078000000fb006101b90082
:100ae80000fd2f00f1ff2f00020140008381480024
:100af800520798006307980090002000010020002a
:100b08005e019000ee019000800f5100818f590026
:100b180028003e005e009000ee009000006001009a
:100b280026003700080037000a0037000c0037009d
:100b38000e0037001000370012003700140037008d
:100b480016003700180037009e0078007a8f4000a2
:100b58001a003700320320001e0f4100170037002b
:100b6800d30420001e8f41001400370060062000c7
:100b78001e0f400011003700010820001e8f4000a2
:100b88000e003700a20920001e0f41000b0037009d
:100b9800330b20001e8f410008003700d00c2000c6
:100ba8001e0f400005003700610e20001e8f400018
:100bb800020037000000eb00000f78001e017800eb
:100bc800220798002e0090000080fa00000006001e
:100bd8007c00fa000e80e800013b2800170009009d
:100be800315878008001b1007a004700813c280024
:100bf80012000900315878003001b1007a0f47001f
:100c080084c8bf00e14f500027023a000144800029
:100c1800114078000000fb00503f98000100e800f8
:100c280000448800d0062000de389000808f5000f5
:100c3800a401320030072000de389000808f500079
:100c4800010032000d02370030072000f7fd0700d1
:100c580000448000403f98004e3890009040780053
:100c68000040eb0060f7980040c7b30080cf500009
:100c780002003a0011c0b30061f79800ce38900026
:100c88000100e800004488006ef090000004e000d5
:100c9800fa01320040072000e4fd0700014480000b
:100ca800114078000000fb00203f98000100e80098
:100cb80000448800d0062000ae389000808f500095
:100cc8000b013200d0062000ae389000808f500013
:100cd80009003c0040062000ae389000808f50008c
:100ce8007000320060062000ae389000808f5000ff
:100cf8006e0132007101370000072000ae38900005
:100d0800808f50003600320030072000ae38900047
:100d1800808f500001003200680137003007200042
:100d2800c2fd070000448000103f98001e38900064
:100d3800904078000040eb0000f7980000c2b30034
:100d480080cf500002003a0011c0b30001f79800ac
:100d58009e3890000100e800004488000ef09000e2
:100d68000004e000c5013200004480009040780093
:100d780010c3b30080cf500004003a000e8fe80083
:100d880010c0b3006ae8b700bc0137000144800016
:100d9800713798007e309000904078000040eb005a
:100da80040ef980020c3b30080cf500002003a0003
:100db80011c0b30041ef9800fe3090000100e80038
:100dc800004488004ee890000004e000ab013200c7
:100dd8000e8fe80010c0b3006be8b700a70137001a
:100de8000007200091fd070001448000513798005a
:100df8005e309000904078000040eb0000ef9800d3
:100e080000c2b30080cf500002003a0011c0b30006
:100e180001ef9800de3090000100e80000448800ef
:100e28000ee890000004e0009401320000448000c5
:100e38009040780010c3b30080cf500004003a00ff
:100e48000e8fe8000040eb006ae8b7008b0137001e
:100e580001448000313798003e309000904078007f
:100e68000040eb0040e7980020c3b30080cf50005b
:100e780002003a0011c0b30041e79800be3090006c
:100e88000100e800004488004ee090000004e00003
:100e98007a0132000e8fe8000040eb006be8b700e3
:100ea800760137004006200060fd070000448000fe
:100eb8009040780000c2b30080cf50001f003a0075
:100ec800004480000000e8000044880000448000de
:100ed8009040780010c3b30080cf500003003a0060
:100ee8000e8fe800640307006401370001448000a6
:100ef800113798001e309000904078000040eb00b9
:100f080000e7980020c3b30080cf500002003a00e9
:100f180011c0b30001e798009e3090000100e8007e
:100f2800004488000ee090000004e0005301320005
:100f38000e8fe80057030700500137000144800076
:100f4800114078000000fb00702f98000100e800b5
:100f58000044880030062000fe289000808f500052
:100f68000500320080062000fe289000808f500087
:100f7800300032004101370000448000602f9800a3
:100f88006e289000904078000040eb0020df980029
:100f980000c2b30080cf500002003a0011c0b30075
:100fa80021df9800ee2890000100e8000044880046
:100fb8002ed890000004e000300132000044800088
:100fc8009040780010c3b30080cf500004003a006e
:100fd8000e8fe80010c0b3006ce8b7002701370097
:100fe80001448000412f98004e28900090407800de
:100ff8000040eb0060d7980020c3b30080cf5000ba
:1010080002003a0011c0b30061d79800ce289000c2
:101018000100e800004488006ed090000004e00061
:10102800160132000e8fe80010c0b3006de8b7005b
:101038001201370001448000212f98002e289000cb
:10104800904078000040eb0020d7980000c2b30021
:1010580080cf500002003a0011c0b30021d7980099
:10106800ae2890000100e800004488002ed09000cf
:101078000004e00001013200004480009040780044
:1010880010c3b30080cf500004003a000e8fe80070
:101098000040eb006ce8b700f8003700014480001e
:1010a800012f98000e289000904078000040eb0037
:1010b80060cf980020c3b30080cf500002003a00f0
:1010c80011c0b30061cf98008e2890000100e8009d
:1010d800004488006ec890000004e000e700320079
:1010e8000e8fe8000040eb006de8b700e300370022
:1010f800d0062000cdfc0700014480001140780094
:101108000000fb00602798000100e8000044880008
:1011180060062000ee209000808f5000050032000d
:1011280080062000ee209000808f500030003200b2
:10113800d200370000448000502798005e209000bd
:10114800904078000040eb0000cf980000c2b30048
:1011580080cf500002003a0011c0b30001cf9800c0
:10116800de2090000100e800004488000ec89000ce
:101178000004e000c1003200004480009040780084
:1011880010c3b30080cf500004003a000e8fe8006f
:1011980010c0b3006ee8b700b80037000144800003
:1011a800312798003e209000904078000040eb00e6
:1011b80040c7980020c3b30080cf500002003a0017
:1011c80011c0b30041c79800be2090000100e8009c
:1011d800004488004ec090000004e000a7003200e0
:1011e8000e8fe80010c0b3006fe8b700a300370007
:1011f80001448000112798001e209000904078003c
:101208000040eb0000c7980000c2b30080cf500038
:1012180002003a0011c0b30001c798009e20900058
:101228000100e800004488000ec090000004e000bf
:1012380092003200004480009040780010c3b30050
:1012480080cf500004003a000e8fe8000040eb0009
:101258006ee8b7008900370001448000711f9800cc
:101268007e189000904078000040eb00407f980086
:1012780020c3b30080cf500002003a0011c0b30071
:10128800417f9800fe1890000100e80000448800a3
:101298004e7890000004e000780032000e8fe800dd
:1012a8000040eb006fe8b7007400370060062000cc
:1012b8005efc07000e8fe800700037007a0f4700c9
:1012c8006e003700d006200058fc0700014480005b
:1012d800511f98005e189000904078000040eb0085
:1012e800007f980040c6b30080cf500002003a004b
:1012f80011c0b300017f9800de1890000100e800db
:10130800004488000e7890000004e0005b00320082
:101318004006200045fc070001448000311f98006a
:101328003e189000904078000040eb00407798000d
:1013380030c6b30080cf500002003a0011c0b3009d
:1013480041779800be1890000100e800004488002a
:101358004e7090000004e000480032003006200083
:1013680032fc070001448000114078000000fb00b7
:10137800101f98000100e800004488009006200033
:101388009e189000808f5000310032009006200097
:101398009e189000808f500005003c0040062000f9
:1013a8009e189000808f50002f00320033003700c5
:1013b800000720009e189000808f50001e00320009
:1013c800200720009e189000808f500001003200f6
:1013d8002a0037002007200014fc07000044800082
:1013e800001f98000e189000904078000040eb0015
:1013f800606f980000c2b30080cf500002003a002e
:1014080011c0b300616f98008e1890000100e800c9
:10141800004488006e6890000004e0001700320065
:101428000e8fe80000448000104078000000fb00a8
:101438000afc07001100370000072000fbfb07002b
:10144800004480000000e800004488000b003700da
:1014580090062000f5fb0700004480000000e8002b
:10146800004488000500370040062000effb070015
:10147800004480000000e800004488001044800018
:101488000044880000448000f04388001e00780073
:10149800fcfb0700edfb07000004e000fdff3a003d
:1014a8000040eb0084e8b7000080fa000000060066
:1014b8000000fa00e0f02f000cfc070000002800f4
:1014c800601088000040200070108800f0002000a4
:1014d800a01088000000eb000080fa000000060061
:1014e8003600f800809fbe00829fbe00849fbe0029
:1014f800869fbe000000fa006ac8bf000004e00032
:1015080001003200360107008460a9000080fa005b
:101518004f03be004f02be004f01be004f00be0089
:101528003600f900004006003600f800809fbe0033
:10153800829fbe00849fbe00869fbe000000fa0006
:101548007a01070084c0a9000080fa004f03be009a
:101558004f02be004f01be004f00be003600f9002a
:10156800004006000000fa003116800000f02f004d
:1015780000806000301688000080eb00401588006d
:1015880090ff2f0004fc07008080eb00d0f92f00ab
:1015980016fc070090ff2f0018fc07008080eb0066
:1015a800d0f92f0029fc07000080fa00000006008f
:1015b8000c00fa00008fbe004247980034079800dc
:1015c80045079800234f98002e4890000004e0003b
:1015d8003e0032004e4090000004e0003600320029
:1015e8001800370080438000e30f500002003400e9
:1015f8000000eb008043880050168000000178004e
:10160800f200b30081438000c03d28000080400004
:10161800104078000080fb00000061005016880030
:101628000100e800804388003e009000ce00900052
:10163800200207000080eb008080eb001e0f4000b6
:101648005e9748001e00be00e00f5000e08f580073
:10165800e4ff3a005a003700804380000000e000b1
:1016680002003d00300020008043880050168000b2
:1016780000017800f200b30081438000c03d2800db
:1016880000804000104078000080fb0000006100ee
:10169800501688000100e900804388003e00900051
:1016a800ce009000030207000080eb008080eb0072
:1016b8001e0f40005e9748001e00be00e00f50005d
:1016c800e08f5800e4ff3a003d0037004e4090009c
:1016d8000004e00036003200180037008043800024
:1016e800e70f5000020034000000eb008043880040
:1016f8005016800000017800f200b300814380009a
:10170800003e280000804000104078000080fb0068
:1017180000006100501688000100e800804388003e
:101728003e009000ce009000e20107000080eb0030
:101738008080eb001e0f40005e9748001e00be0030
:10174800e00f5000e08f5800e4ff3a001c0037001b
:10175800804380000000e00002003d00700020008f
:10176800804388005016800000017800f200b30022
:1017780081438000003e280000804000104078002f
:101788000080fb0000006100501688000100e9009d
:10179800804388003e009000ce009000c5010700fd
:1017a8000080eb008080eb001e0f40005e97480031
:1017b8001e00be00e00f5000e08f5800e4ff3a0022
:1017c8000080fa00000006000c00fa00008fbe003e
:1017d800424798003407980045079800234f98001f
:1017e8002e4890000004e0003e0032004e40900079
:1017f8000004e000360032001800370090438000f3
:10180800e30f5000020034000000eb009043880012
:1018180051168000000f2000008170009143800065
:10182800803e280000804000104078000080fb00c7
:1018380000006100501688000100e800904388000d
:101848003e009000ce0090009a0107000080eb0057
:101858008080eb001e0f40005e9748001e00be000f
:10186800e00f5000e08f5800e4ff3a005a003700bc
:10187800904380000000e00002003d00300020009e
:101888009043880051168000000f200000817000ee
:1018980091438000803e280000804000104078007e
:1018a8000080fb0000006100501688000100e9007c
:1018b800904388003e009000ce0090007d01070014
:1018c8000080eb008080eb001e0f40005e97480010
:1018d8001e00be00e00f5000e08f5800e4ff3a0001
:1018e8003d0037004e4090000004e0003600320012
:1018f8001800370090438000e70f500002003400c2
:101908000000eb009043880051168000000f200073
:101918000081700091438000c03e28000080400094
:10192800104078000080fb0000006100501688001d
:101938000100e800904388003e009000ce0090002f
:101948005c0107000080eb008080eb001e0f400068
:101958005e9748001e00be00e00f5000e08f580060
:10196800e4ff3a001c003700904380000000e000cc
:1019780002003d007000200090438800511680004e
:10198800000f20000081700091438000c03e2800b5
:1019980000804000104078000080fb0000006100db
:1019a800501688000100e900904388003e0090002e
:1019b800ce0090003f0107000080eb008080eb0024
:1019c8001e0f40005e9748001e00be00e00f50004a
:1019d800e08f5800e4ff3a000080fa00000006009b
:1019e8000000fa006ec8bf000004e00027003200c3
:1019f8006cc8bf000004e000120032008043800081
:101a0800e30f5000020034000000eb008043880020
:101a18005016800000017800f200b3008143800076
:101a2800c03d280000804000104078000080fb0086
:101a380000006100501688000100e800804388001b
:101a480038003700804380000000e00002003d00bd
:101a58003000200080438800501680000001780084
:101a6800f200b30081438000c03d280000804000a0
:101a7800104078000080fb000000610050168800cc
:101a88000100e90080438800260037006cc8bf00c9
:101a98000004e0001200320080438000e70f50008d
:101aa800020034000000eb008043880050168000dc
:101ab80000017800f200b30081438000003e280056
:101ac80000804000104078000080fb0000006100aa
:101ad800501688000100e800804388001100370094
:101ae800804380000000e00002003d0070002000fc
:101af800804388005016800000017800f200b3008f
:101b080081438000003e280000804000104078009b
:101b18000080fb0000006100501688000100e90009
:101b2800804388000080fa00000006000000fa00e8
:101b38006fc8bf000004e000270032006dc8bf0076
:101b48000004e0001200320090438000e30f5000d0
:101b5800020034000000eb0090438800511680001a
:101b6800000f20000081700091438000803e280013
:101b780000804000104078000080fb0000006100f9
:101b8800501688000100e8009043880038003700ac
:101b9800904380000000e00002003d00300020007b
:101ba8009043880051168000000f200000817000cb
:101bb80091438000803e280000804000104078005b
:101bc8000080fb0000006100501688000100e90059
:101bd80090438800260037006dc8bf000004e0006d
:101be8001200320090438000e70f500002003400da
:101bf8000000eb009043880051168000000f200081
:101c08000081700091438000c03e280000804000a1
:101c1800104078000080fb0000006100501688002a
:101c28000100e800904388001100370090438000cd
:101c38000000e00002003d00700020009043880092
:101c480051168000000f2000008170009143800031
:101c5800c03e280000804000104078000080fb0053
:101c680000006100501688000100e90090438800d8
:101c78000080fa00000006000000fa0050168000fc
:101c8800010f200001006000501688000080fa0053
:101c9800000006000000fa00501680006f00600087
:101ca800501688000080fa00000006003600f80090
:101cb800809fbe00829fbe00849fbe00869fbe009c
:101cc8000000fa000040eb0065fa0700d0438800e6
:101cd8004087200090f90700c1438000f0ff2000f2
:101ce8000088b900ddf907008560a9000080fa00c6
:101cf8004f03be004f02be004f01be004f00be00a2
:101d08003600f900004006000000fa0000852000b7
:101d1800a0438800a0ff2000b0438800408720002f
:101d280099f90700606622007044880090992100a4
:101d3800804488000000eb00904488004187200020
:101d4800e08820009bf9070010ff2f0049fa0700e0
:101d5800f1ff2000d0f82f005bfa07005efa0700b9
:101d680050ff2f0061fa07000001eb008000eb0034
:101d7800e0ff2f0071fa0700112a20009140780037
:101d8800c0cfb30000c06000a1e2b700012a200064
:101d98009140780000ceb30000c07000a0e2b70008
:101da800a042a800212a200091407800c0c3b300b7
:101db80000c07000a2e2b700a5c2bf00f041b300a6
:101dc800a5e2b700412a200091407800f0c3b30093
:101dd80000c07000a4e2b700a4e2a900c00020007f
:101de800301588000000eb0050158800311680007f
:101df8000000210000807000301688000080eb0091
:101e080040158800a982a9008560a9008d60a800f6
:101e1800a1e2a800a0002000e04388000000eb0039
:0c1e2800d04388000080fa000000060093
:020000040000fa
:101e34007e0800000800000002000000560856005a
:101e440008560800000000005608000014000000b6
:101e5400000000006a0800000a0000000200000000
:101e6400000001000100000000000000000000006c
:101e74008608000008000000000000008e08000032
:101e84000600000002000000000000000000000046
:101e9400740800000a000000000000005008000060
:101ea4000600000000000000fa0f00000600000019
:081eb400000000000000000026
:020000040000fa
:101ebc00f03fb1000180b10006003500ee030900cf
:101ecc0000000000403fb1000180b100fbff3d006d
:101edc001000b000203fb000020035000080090067
:101eec0000000000000006000000fa0003000700dc
:101efc005dfa070035fb0700fdff37000000fa0014
:101f0c006afd070096fd07007eff07000080fa00bf
:041f1c0000000600bb
:020000040000fa
:041f20000000fe00bf
:00000001FF
