:020000040000fa
:080000000001040000000000f3
:020000040000fa
:10020000af892000a0fe200000018800000000004f
:100210000c000700c0ad2000010020001100070005
:10022000000020000000e000020032000000020098
:10023000000000007e0b0200000000000040da0019
:100240000000fe004440a900000920000000e0007a
:100250000300320000002000a00188004440a800f4
:100260000000060091018800800078000000eb008b
:1002700015003700e280400032a0b4009101ba00be
:10028000e280400032a0b4009102ba00e280400057
:1002900032a0b4000002eb00472bde00f507b200ed
:1002a000602ce10004003a000059eb008301e900f2
:1002b000fdff3e00040037006128e100010032002c
:1002c0000082eb00040007001101ba000200e00008
:1002d000e8ff3a00000006003159ba008301e90046
:1002e0000c0032002159ba008301e90008003200f5
:1002f0000400e00003003a00e280400032a0b400b5
:10030000f5ff370011d9ba008301e900faff3a007e
:100310008100e800e180400032a0b4000000060047
:10032000881f78008a1f78004400f800080f20001a
:10033000280288000004900010059000a0009000a2
:1003400030019000c00190000300ca000280ca0082
:100350000030cb001a00cd004604c3000100ca00e3
:100360004604c0001e04c0000605c0000100cd0008
:1003700021009800050d7800eaba9700052578005d
:100380004400f9004f0578004f0478000000060093
:10039000801f78004000b0000008eb004f0078009c
:1003a000801f7800100090000018eb000018eb0090
:1003b0000008eb004f007800000006004400f80041
:1003c000020f200022028800910078003000ca004d
:1003d0003080ca000000cb002080ca000000cb00a3
:1003e0003100cd004000ca000000cb000000cb006f
:1003f0000010cb003100cd001180cc004400f9008a
:10040000000006000cc2bf0066406000e64f5000ce
:1004100002003a009010800000000600901080005a
:10042000f00fb200000006000ec2bf0061006000c5
:1004300000000600800078000cc2bf00664060002b
:10044000e64f500001003200f10fb2008110880029
:10045000000006000fc2bf000004a200610060009f
:100460000000060080007800000178000cc2bf0088
:1004700066406000e64f500010003a00050037006b
:100480000fc2bf000018a300fdff3a0082108800d1
:100490008180e800110178000200e000f8ff3a00d6
:1004a000000006000fc2bf000018a300fdff3a00c5
:1004b0000100fb00801088000201e80092407800f3
:1004c0000104e000f7ff3a00000006008520a900c3
:1004d0008540a900e7416000c419dd0081092000c2
:1004e00091407800f2c8b30082c0600083c0700001
:1004f0008000fd0098e0b7008000fd0080017800da
:100500000307b200c419de00910920009140780071
:1005100082cfb30082c0600083c070008000fd0005
:1005200099e0b7008000fd00680160004311de0023
:1005300002414100d1082000914078000114a1003f
:1005400082c070008000fd008de0b7008000fd00db
:100550000008b2004700de004200dd00d1082000a4
:10056000914078000124a10080c070000100780053
:100570008de0b700000006008460a900e74160003c
:10058000c419dd005109200091407800f2c8b30081
:1005900082c0600083c070008000fd0095e0b7005d
:1005a0008000fd00680060004300de004300dd00c5
:1005b000c1082000914078000134a10080c0700083
:1005c000010078008ce0b700000006000021ef0079
:1005d00011088800200888000000060084c0a900d7
:1005e000e7416000710920009140780082cfb3009c
:1005f00082c0600083c070008000fd0097e0b700fb
:100600008000fd00680060004300de004600dd0061
:10061000c1082000914078000164a10080c07000f2
:10062000010078008ce0b700000006000621ef0012
:1006300061088800800888001061a9000000060099
:100640008440a900e74160005109200091407800f2
:1006500082cfb30082c0600083c070008000fd00c4
:1006600095e0b7008000fd00680060004300de00f8
:100670004200dd00c1082000914078000124a10063
:1006800080c07000010078008ce0b7000000060018
:100690000002780080cfb3008461b600010c8800ae
:0c06a000120c8800240c880000000600ea
:020000040000fa
:10000800940b0000940b0000940b0000940b00006c
:10001800940b0000940b0000940b0000940b00005c
:10002800940b0000940b0000940b0000e603000002
:10003800940b0000940b000004040000940b0000d3
:10004800940b000096070000940b0000940b00002e
:10005800940b0000940b0000940b0000940b00001c
:10006800940b0000940b0000940b0000940b00000c
:10007800940b0000940b0000940b0000940b0000fc
:10008800940b0000940b0000940b0000940b0000ec
:10009800940b0000940b0000940b0000940b0000dc
:1000a800940b0000940b0000940b0000940b0000cc
:1000b800940b0000940b0000940b0000940b0000bc
:1000c800940b0000940b0000940b0000940b0000ac
:1000d800940b0000940b0000940b0000940b00009c
:1000e800940b0000940b0000940b0000940b00008c
:0800f800940b0000940b0000c2
:020000040000fa
:10010800940b0000940b0000940b0000940b00006b
:10011800940b0000940b0000940b0000940b00005b
:10012800940b0000940b0000940b0000e603000001
:10013800940b0000940b000004040000940b0000d2
:10014800940b000096070000940b0000940b00002d
:10015800940b0000940b0000940b0000940b00001b
:10016800940b0000940b0000940b0000940b00000b
:10017800940b0000940b0000940b0000940b0000fb
:10018800940b0000940b0000940b0000940b0000eb
:10019800940b0000940b0000940b0000940b0000db
:1001a800940b0000940b0000940b0000940b0000cb
:1001b800940b0000940b0000940b0000940b0000bb
:1001c800940b0000940b0000940b0000940b0000ab
:1001d800940b0000940b0000940b0000940b00009b
:1001e800940b0000940b0000940b0000940b00008b
:0801f800940b0000940b0000c1
:020000040000fa
:1006ac002d200000436f00006d6d0000616e000096
:1006bc00642000004163000063650000707400005a
:1006cc00656400002e0a00000a0d00000000000006
:1006dc002d2000004241000044200000436f000028
:1006ec006d6d0000616e0000642e00000a0a0000af
:1006fc000d000000002d000020550000736100006b
:10070c00676500003a200000762000005b63000063
:10071c00686100006e6e0000656c0000202800000f
:10072c00302d0000312900005d2000005b760000b8
:10073c006f6c0000746100006765000020280000e9
:10074c00312e0000302000002d200000372e00003c
:10075c00302900005d0a00000a0d000000000000b6
:10076c002d200000496e0000766100006c690000cd
:10077c006420000043680000616e00006e6500009c
:10078c006c2e00000a0a00000d00000000000000a2
:10079c00f1f20000f4f80000f1f30000f2f60000b2
:1007ac00f4fc0000f8f900001f2f00004f8f000030
:1007bc001f3f00002f6f00004fcf00008f9f0000e5
:020000040000fa
:1007cc003600f800809fbe00829fbe00849fbe0052
:1007dc00869fbe000000fa002b0107008460a90070
:1007ec000080fa004f03be004f02be004f01be0056
:1007fc004f00be003600f900004006003600f8003d
:10080c00809fbe00829fbe00849fbe00869fbe005c
:10081c000000fa006f01070084c0a9000080fa00f4
:10082c004f03be004f02be004f01be004f00be0082
:10083c003600f900004006000000fa0090ff2f007f
:10084c004aff07008080eb00d0f92f005cff070007
:10085c0090ff2f005eff07008080eb00d0f92f0087
:10086c006fff07000080fa00000006000c00fa0081
:10087c00008fbe0042479800340798004507980047
:10088c00234f98002e4890000004e0003e003200f8
:10089c004e4090000004e000360032001800370093
:1008ac0080438000e30f5000020034000000eb0096
:1008bc00804388005016800000017800f200b300dd
:1008cc0081438000e03c280000804000104078000c
:1008dc000080fb0000006100501688000100e80059
:1008ec00804388003e009000ce0090007203070009
:1008fc000080eb008080eb001e0f40005e974800ec
:10090c001e00be00e00f5000e08f5800e4ff3a00dc
:10091c005a003700804380000000e00002003d00d8
:10092c0030002000804388005016800000017800c1
:10093c00f200b30081438000e03c280000804000be
:10094c00104078000080fb00000061005016880009
:10095c000100e800804388003e009000ce0090002b
:10096c00550307000080eb008080eb001e0f400059
:10097c005e9748001e00be00e00f5000e08f58004c
:10098c00e4ff3a003d0037004e4090000004e000c8
:10099c00360032001800370080438000e70f50000b
:1009ac00020034000000eb008043880050168000e9
:1009bc0000017800f200b30081438000203d280044
:1009cc0000804000104078000080fb0000006100b7
:1009dc00501688000100e800804388003e0090001b
:1009ec00ce009000340307000080eb008080eb0009
:1009fc001e0f40005e9748001e00be00e00f500026
:100a0c00e08f5800e4ff3a001c0037008043800060
:100a1c000000e00002003d007000200080438800d0
:100a2c005016800000017800f200b3008143800072
:100a3c00203d280000804000104078000080fb0022
:100a4c0000006100501688000100e8008043880017
:100a5c003e009000ce009000170307000080eb00d2
:100a6c008080eb001e0f40005e9748001e00be0009
:100a7c00e00f5000e08f5800e4ff3a000080fa00cd
:100a8c00000006000a00fa00008fbe0042479800e2
:100a9c0033079800044f98000e4890000004e000c3
:100aac003c0032004e4090000004e0003400320064
:100abc001700370090438000e30f50000200340011
:100acc000000eb009043880051168000000f2000be
:100adc000081700091438000a03d28000080400000
:100aec00104078000080fb00000061005016880068
:100afc000100e800904388003e009000ee020700e1
:100b0c000080eb008080eb001e0f40005e974800d9
:100b1c001e00be00e00f5000e08f5800e5ff3a00c9
:100b2c0057003700904380000000e00002003d00b9
:100b3c00300020009043880051168000000f2000e8
:100b4c000081700091438000a03d2800008040008f
:100b5c00104078000080fb000000610050168800f7
:100b6c000100e800904388003e009000d20207008c
:100b7c000080eb008080eb001e0f40005e97480069
:100b8c001e00be00e00f5000e08f5800e5ff3a0059
:100b9c003b0037004e4090000004e000340032006f
:100bac001700370090438000e70f5000020034001c
:100bbc000000eb009043880051168000000f2000cd
:100bcc000081700091438000e03d280000804000cf
:100bdc00104078000080fb00000061005016880077
:100bec000100e800904388003e009000b20207002c
:100bfc000080eb008080eb001e0f40005e974800e9
:100c0c001e00be00e00f5000e08f5800e5ff3a00d8
:100c1c001b003700904380000000e00002003d0004
:100c2c00700020009043880051168000000f2000b7
:100c3c000081700091438000e03d2800008040005e
:100c4c00104078000080fb00000061005016880006
:100c5c000100e800904388003e00900096020700d7
:100c6c000080eb008080eb001e0f40005e97480078
:100c7c001e00be00e00f5000e08f5800e5ff3a0068
:100c8c000080fa00000006000000fa006ec8bf00e9
:100c9c000004e000270032006cc8bf000004e00034
:100cac001200320080438000e30f50000200340039
:100cbc000000eb0080438800501680000001780093
:100ccc00f200b30081438000e03c2800008040002b
:100cdc00104078000080fb00000061005016880076
:100cec000100e80080438800380037008043800012
:100cfc000000e00002003d0030002000804388002e
:100d0c005016800000017800f200b300814380008f
:100d1c00e03c280000804000104078000080fb0080
:100d2c0000006100501688000100e8008043880034
:100d3c00260037006cc8bf000004e000120032002f
:100d4c0080438000e70f5000020034000000eb00ed
:100d5c00804388005016800000017800f200b30038
:100d6c0081438000203d2800008040001040780026
:100d7c000080fb0000006100501688000100e800b4
:100d8c008043880011003700804380000000e000a1
:100d9c0002003d0070002000804388005016800047
:100dac0000017800f200b30081438000203d280050
:100dbc0000804000104078000080fb0000006100c3
:100dcc00501688000100e800804388000080fa007b
:100ddc00000006000000fa006fc8bf000004e0002d
:100dec00270032006dc8bf000004e0001200320082
:100dfc0090438000e30f5000020034000000eb0031
:100e0c009043880051168000000f20000081700074
:100e1c0091438000a03d28000080400010407800e5
:100e2c000080fb0000006100501688000100e80003
:100e3c009043880038003700904380000000e000a9
:100e4c0002003d00300020009043880051168000c5
:100e5c00000f20000081700091438000a03d28000d
:100e6c0000804000104078000080fb000000610012
:100e7c00501688000100e8009043880026003700d7
:100e8c006dc8bf000004e0001200320090438000e7
:100e9c00e70f5000020034000000eb009043880084
:100eac0051168000000f20000081700091438000db
:100ebc00e03d280000804000104078000080fb00de
:100ecc0000006100501688000100e8009043880083
:100edc0011003700904380000000e00002003d004c
:100eec00700020009043880051168000000f2000f5
:100efc000081700091438000e03d2800008040009c
:100f0c00104078000080fb00000061005016880043
:100f1c000100e800904388000080fa000000060001
:100f2c003600f800809fbe00829fbe00849fbe00ea
:100f3c00869fbe00881f78000000fa008520a9005b
:100f4c000f00370010448000f4004000f043800094
:100f5c00808f50000300320084c8bf00e14f500066
:100f6c0002003a0024fd070005003700f84380001a
:100f7c0021fd0700004c78000800e800f0438800d1
:100f8c0026fd07000004e000eeff3a000080fa00a6
:100f9c004f0478004f03be004f02be004f01be004d
:100fac004f00be003600f900004006000200fa00b7
:100fbc0010448000f400400000448000808f5000fa
:100fcc0005003a0010448000004488000044800072
:100fdc00f04388003b003700f14380000044800060
:100fec00808f50003700360084c8bf000004e0003a
:100ffc0034003a0000448000104078000000fb00f0
:10100c0009fd070001448000114078000000fb003e
:10101c00000f78000100e800004488001e007800f2
:10102c00ea0f5000240032001e007800ed0f500033
:10103c00190032001e007800e80f50000100320049
:10104c001d003700104480008000e8000044800040
:10105c00808f50000a00310000022000f2fc0700d3
:10106c0080002000f0fc0700004480000080e900b4
:10107c000044880000448000f04388000e003700d4
:10108c00004480000000e900004488000044800017
:10109c00f043880008003700a0002000e2fc0700a5
:1010ac00104480000044880000448000f043880015
:1010bc0010c0b30084e8b700e3fc07000004e000b4
:1010cc00fdff3a000080fa00000006000e00fa0056
:1010dc00100798000000eb00000f78001e00900035
:1010ec000000e80090407800e0c2b30080cf5000d0
:1010fc00030032000000eb0020079800810037004d
:10110c001e009000104078008000fb001e00900034
:10111c000000e800100798006109b90000fd2f00dd
:10112c00f1ff2f0002014000838148003207980034
:10113c004307980090002000010020003e01900021
:10114c00ce019000800f5100818f59002b003e0082
:10115c003e009000ce0090000060010009003700b6
:10116c000b0037000d0037000f003700110037005f
:10117c00130037001500370017003700190037002f
:10118c001b0037000000eb00000f78001d0037003b
:10119c0000102000000f78001a00370000202000fb
:1011ac00000f78001700370000302000000f780087
:1011bc001400370000402000000f780011003700a9
:1011cc0000502000000f78000e0037000060200057
:1011dc00000f78000b00370000702000000f780023
:1011ec000800370000802000000f78000500370051
:1011fc0000902000000f7800020037000000eb0088
:10120c00000f78001e0090000000e8001007980006
:10121c001e009000104078000000fb006101b90036
:10122c0000fd2f00f1ff2f000201400083814800d8
:10123c0052079800630798009000200001002000de
:10124c005e019000ee019000800f5100818f5900db
:10125c0028003e005e009000ee009000006001004f
:10126c0026003700080037000a0037000c00370052
:10127c000e00370010003700120037001400370042
:10128c0016003700180037009e0078007a8f400057
:10129c001a003700320320001e0f410017003700e0
:1012ac00d30420001e8f410014003700600620007c
:1012bc001e0f400011003700010820001e8f400057
:1012cc000e003700a20920001e0f41000b00370052
:1012dc00330b20001e8f410008003700d00c20007b
:1012ec001e0f400005003700610e20001e8f4000cd
:1012fc00020037000000eb00000f78001e017800a0
:10130c00220798002e0090000080fa0000000600d2
:10131c008e00fa000e80e8006135280017000900e5
:10132c00315878008001b1007a004700e13628007e
:10133c0012000900315878003001b100d0022000b1
:10134c000e00400011382800340009003158780094
:10135c005003b100200620000e004000613b280025
:10136c0016000900315878007001b1007a0f47005f
:10137c0084c8bf00e14f50007e003a000144800059
:10138c00114078000000fb00608798000100e80025
:10139c000044880090062000ee809000808f500062
:1013ac006400320060072000ee809000808f5000b7
:1013bc0001003200640037000044800010407800c7
:1013cc00ed4f5000040032000044800010407800c3
:1013dc00ea4f500003003a00d0022000000f4700f3
:1013ec005900370001448000518798005e809000be
:1013fc00904078000040eb00004f990000c2b30011
:10140c0080cf500002003a0011c0b300014f990088
:10141c00de8090000100e800004488000e48910036
:10142c000004e000410032000144800011407800cb
:10143c000000fb00308798000100e80000448800a1
:10144c0000032000be809000808f50000500320009
:10145c0010032000be809000808f50001a003200d4
:10146c002f00370000448000208798002e809000c9
:10147c00904078000040eb002047990000c2b30078
:10148c0080cf500002003a0011c0b30021479900f0
:10149c00ae8090000100e800004488002e409100ce
:1014ac000004e00005003200900720000e00400010
:1014bc0006ff07000e8fe80023003700d102200042
:1014cc00010f47002000370000448000008798007f
:1014dc000e809000904078000040eb0060ff980078
:1014ec0000c2b30080cf500002003a0011c0b3001c
:1014fc0061ff98008e8090000100e8000044880095
:10150c006ef890000004e000020032000e8fe8003c
:10151c000d003700d1022000010f47000a003700f0
:10152c0020062000000f4700070037007a0f470005
:10153c000500370090042000bbfb0700c2fb07002e
:10154c000004e000fdff3a001044800000448800d5
:10155c0000448000f04388001e007800befb0700aa
:10156c00b9fb07000004e000fdff3a000040eb006f
:10157c0084e8b7000080fa00000006000000fa00c2
:10158c00e0f02f00cefb0700000028006010880060
:10159c000040200070108800f0002000a01088008f
:0c15ac000000eb000080fa0000000600c8
:020000040000fa
:1015b8008e0800000600000002000000400d030035
:1015c800000000007e080000080000000200000083
:1015d800560856000856080000000000560800008b
:1015e80014000000000000006a0800000a00000063
:1015f80002000000000001000100000000000000df
:10160800000000008608000008000000000000003c
:10161800940800000600000002000000000000001e
:1016280000000000740800000a000000000000002c
:10163800500800000600000000000000fa0f00003b
:0c16480006000000000000000000000090
:020000040000fa
:101654000000fa0000852000a0438800a0ff2000bd
:10166400b04388004087200048fb0700909925007c
:10167400a044880090992100b0448800608f200025
:10168400c044880041872000408920004afb0700ad
:1016940050ff2f00e9fb07000001eb008000eb0086
:1016a400e0ff2f00f9fb070080eb2500e0438800f2
:1016b400b09f2300d04388000080fa000000060099
:1016c400f03fb1000180b10006003500ee030900cf
:1016d40000000000403fb1000180b100fbff3d006d
:1016e4001000b000203fb000020035000080090067
:1016f40000000000000006000000fa0001000700de
:10170400ffff37000000fa000000eb0030168800ed
:10171400f0ff20004015880049fc07000080fa0013
:0417240000000600bb
:020000040000fa
:041728000000fe00bf
:00000001FF
