:020000040000fa
:080000000001040000000000f3
:020000040000fa
:10020000cf882000a0fe2000000188000000000030
:100210000c00070040b7210001002000110007007a
:10022000000020000000e000020032000000020098
:1002300000000000101c0200000000000040da0076
:100240000000fe004440a900600520000000e0001e
:100250000300320000002000a00188004440a800f4
:100260000000060091018800800078000000eb008b
:1002700015003700e280400032a0b4009101ba00be
:10028000e280400032a0b4009102ba00e280400057
:1002900032a0b4000002eb00472bde00f507b200ed
:1002a000602ce10004003a000059eb008301e900f2
:1002b000fdff3e00040037006128e100010032002c
:1002c0000082eb00040007001101ba000200e00008
:1002d000e8ff3a00000006003159ba008301e90046
:1002e0000c0032002159ba008301e90008003200f5
:1002f0000400e00003003a00e280400032a0b400b5
:10030000f5ff370011d9ba008301e900faff3a007e
:100310008100e800e180400032a0b4000000060047
:100320000000000000000000881f78000204780030
:1003300014000700080040004f0478000000060089
:100340000000fa00881f7800000478003fb9970089
:10035000ea81570080007800401920001000070053
:10036000800078000000e000020035000040eb0053
:1003700000f47800010078004f0478000080fa0053
:10038000000006008001eb000200370061f07900f8
:100390008301e800828f5100fcff3a000000060054
:1003a0006200fa00889fbe008a9fbe000004be0063
:1003b000020578008300780060f92f000f004000ec
:1003c000b000070088979f0099979f000000eb00fe
:1003d000a09f9f009a4578000b80fb000000ea0078
:1003e000cf04de0050c2b30080cf550002003200bf
:1003f00009047800010037000904e9000800e00062
:100400000b0034001f909700080178008a007800e4
:100410008f9197000300010090979f000000e0007b
:10042000930032002f98970000004400a09f9f0087
:100430000905450050c2b30080cf550004003200ca
:100440000b04e000e3ff3a002f9897008900370083
:100450000000eb00809f9f00f0979f00e0979f00b7
:10046000d0979f00c0979f00b0979f00c09f9f00ac
:1004700009003700e08720000080500000004000a5
:1004800021872000e10078004f989700010070005c
:10049000c09f9f000a05e8001a4478008800fb000e
:1004a000e08720007c000700800078000000e0006a
:1004b000f0ff3a00a0c2b300804f54000e003a0093
:1004c000bf8897000180e900b08f9f00100078007e
:1004d000b09f9f000000e00005003d000000ea0022
:1004e000b09f9f004f9897000020a000c09f9f00e2
:1004f0000a05e80010003700b19f9f0003fd2f00a0
:10050000f4ff2700080037003f989700840f500041
:10051000040032006a00b9000000410003004000fe
:10052000b09f9f000a05e8001a01fb00030041008c
:10053000e90f5000f4ff3600e0c2b3009a4f1000fc
:10054000040032000080eb00909f9f008a04780036
:100550001c0037008a04e800a0c2b300994f1000c5
:1005600007003a00bf8897000180e900b08f9f0024
:1005700010007800909f9f008a84e80011003700e7
:100580000000eb00909f9f0003fd2f00f4ff270069
:10059000080037001f989700840f500004003200b5
:1005a0006a00b9000000410003004000909f9f00d6
:1005b0008904e8001901fb0003004100e90f500025
:1005c000f4ff3600194478008800fb0040882000c2
:1005d000310007000000e00002003a00004478000b
:1005e000010037008904e800a87f9f0080c6b3009f
:1005f000804f540004003a00994f14000a003a005a
:100600006640500006003700c0c6b300804f54005b
:1006100005003a00994f140003003a00654040007d
:10062000a07f9f008904e8000905e800cbfb2f00ac
:100630008f8545001901fb0060f92f000f00400075
:100640000084e8008b0178008000780008007800c2
:100650001a0007000000e00005003a008b00780057
:1006600008007800580107000000e00059ff3d0035
:100670000080eb004f05be004f04be000080fa0072
:10068000000006000200fa00f1bf9f000108780098
:100690000080fa0000000600040037000204e000b9
:1006a00001003a00000005000000e8001041780059
:1006b000814f5100f9ff3a0000000600889fbe00fc
:1006c0008a1f7800000478000102780082447800d4
:1006d00003057800e0c6b300804f5100d20032001d
:1006e00015003c006b405000804f51002400320048
:1006f0000a003c0070405000804f51000f01320052
:1007000065404000804f51007400320050c2b30079
:10071000804f510020013a001c01370040c6b30051
:10072000804f51001b00320065404000804f510057
:1007300019013a001700370030c7b300804f51004d
:10074000fe00320007003c0064405000804f510022
:10075000620032000040e800804f51000e013a0074
:10076000e700370050c7b300804f51005b003200f4
:1007700063404000804f510007013a0057003700a6
:100780009180e900010a780078009000917178006a
:1007900007013700a8609000c0c6b30080cf5000aa
:1007a0000a003a009400780064805000000a780043
:1007b0001000be004f89de00cf91de000002be00b7
:1007c00002037800820378001300370010c7b300db
:1007d00080cf500003003200a0c6b30080cf50008d
:1007e00006003a009400780068805000000a780003
:1007f0003002be002003be00070037001480e9006d
:10080000000a78001000780000027800cfa2de0015
:100810000503780086037800049cbe000694be00a1
:10082000a860900080c6b30080cf50000e00320058
:1008300020c6b30080cf500005003a000400fb0042
:10084000cf80de0001017800820178000a003700c5
:1008500040c7b30080cf5000030032006640400024
:1008600080cf500006003a0004007800cf80de0000
:100870000101780082017800009cbe000294be0055
:100880003800be002801be00e00f5000e08f580085
:10089000e00f5900e08f590003003d007800900000
:1008a000d1c2b3000a003700081090000018a3005e
:1008b0000300320078009000b1c2b300040037009a
:1008c0000008a300530032007800900001c2b3007a
:1008d000017578000000e8004d003700a860900026
:1008e000c0c6b30080cf500006003a0094007800e4
:1008f00064805000000a78001002be006033b80027
:100900001300370010c7b30080cf5000030032003f
:10091000a0c6b30080cf500006003a0094007800d3
:1009200068805000000a78003002be002003be003c
:10093000070037001480e900000a780010007800f2
:1009400000027800050020000600200007002000bb
:10095000049cbe000694be00a860900080c6b30050
:1009600080cf50000e00320020c6b30080cf500070
:1009700005003a000480fb00010020000200200076
:10098000030020000a00370040c7b30080cf5000aa
:10099000030032006640400080cf500006003a005d
:1009a0000400780001002000020020000300200065
:1009b000009cbe000294be00081090000038a30006
:1009c000140032003800be002801be00e00f5000c5
:1009d000e08f5800e00f5900e08f59000d00320001
:1009e00080c7b30080cf54000300320080c5b3003d
:1009f00080cf540007003a007800900001c3b30094
:100a0000017578008000e80009f578000080e800b2
:100a10007004980078009000000045006004980081
:100a20008940780042003700a8609000c0c6b3003b
:100a300080cf5000250032000a003c006440500086
:100a400080cf50002800320000c0e80080cf500066
:100a5000140032006840500080cf500022003a005d
:100a60000a00370040c7b30080cf50001e0032009c
:100a70006640400080cf50001b00320069405000ab
:100a800080cf500018003a00060037001480e900bb
:100a9000000a780010007800485c90000848780050
:100aa000450037001480e900000a78001002780041
:100ab00068089000cf80de00010178008201780094
:100ac000009abe000292be003b0037001480e9008d
:100ad000000a78001001780068089000cf80de00de
:100ae0000089be00340037001480e900000a780055
:100af00010007800680c9000080878002e0037007d
:100b00001180e9008008780010007800cf80de00b6
:100b10000101780082017800009cbe000294be00b2
:100b200078009000000045006004980081c7b30081
:100b300008007800ee0007001f0037001480e9006d
:100b4000000a7800100078006004980058099000ae
:100b50000200e00002003d006e02070009003700bd
:100b60008000eb0072020700800078000000e000c7
:100b70000300320068009000008050000100370040
:100b800058089000100c98000b0037007800900077
:100b9000027578000600370078009000800045005c
:100ba0000904e00001003a0059c2b3008948780006
:100bb0000000e800700498000000eb004f0578008a
:100bc0004f04be00000006000400fa00889fbe002b
:100bd0008a9fbe008c1f7800000478000106780010
:100be00070089000f8009000010050008808900004
:100bf000010050009808900001005000a8089000e3
:100c000001005000b808900001005000c808900092
:100c1000810550000002220090bf9f0000032300c6
:100c2000a0bf9f00081090000028a30018003a0001
:100c30000b00e000160034008b04780009057800f2
:100c4000e28f5400020036002a0020000200370024
:100c50000900e0000b00340058009000c80190002b
:100c60000a017800ee80570003000100500498004c
:100c70000000e00096003200680890000000450087
:100c8000600c98008a8454004240a900ebff3c00ad
:100c9000780190000200e0000b0034005800900042
:100ca000c80190008c0078000300010050049800f7
:100cb0000000e0008600320068089000f800900014
:100cc00001004000600c9800880c90000900e000d2
:100cd0001500340009057800e28f54000200360048
:100ce0002a002000020037000900e0000b00340059
:100cf00058009000c80190000a017800ec8057006d
:100d000003000100500498000000e0007000320071
:100d10006808900000004500600c98008a84540028
:100d20004240a900ebff3c00180990000200e000df
:100d30000b003400e800900058009000c8019000bb
:100d400003000100500498000000e0006000320041
:100d5000680890009808900001004000600c98001e
:100d6000a80c90000900e000150034000905780087
:100d7000e28f5400020036002a00200002003700f3
:100d80000900e0000b00340058009000c8019000fa
:100d90000a017800ec80570003000100500498001d
:100da0000000e0004a0032006808900000004500a2
:100db000600c98008a8454004240a900ebff3c007c
:100dc000380990000200e0000d003400e8009000b7
:100dd000180890008080400058009000c8019000e2
:100de00003000100500498000000e00038003200c9
:100df00068089000b808900001004000600c98005e
:100e0000c80c90000900e0001500340009057800c6
:100e1000e28f5400020036002a0020000200370052
:100e20000900e0000b00340058009000c801900059
:100e30000a017800ec80570003000100500498007c
:100e40000000e00022003200680890000000450029
:100e5000600c98008a8454004240a900ebff3c00db
:100e6000081090000028a3001b0032000b00e000d7
:100e7000190034008b04780009057800e28f5400d3
:100e8000020036002a002000020037000900e000be
:100e90000b00340058009000c80190000a0178004f
:100ea000ee80570003000100500498000000e000ad
:100eb000070032006808900000004500600c9800b0
:100ec0008a8454004240a90003003400eaff37003e
:100ed0000080eb00010037000000eb004f067800b7
:100ee0004f05be004f04be000080fa00000006005f
:100ef0002f03b000889fbe008a9fbe008c9fbe005b
:100f00008e1f78000007780010862000c0b79f0071
:100f100080c5b30080cf5000080032000285200059
:100f2000c2b79f007740400080cf500003003a00d6
:100f300083002000b3b79f000a00370080c7b300ca
:100f400080cf500005003200a4002000b4b79f00fd
:100f500080c5b30080cf500002003a000501200098
:100f6000b5b79f003e04be002e05be0040c6b300cc
:100f700080cf5000030032006540400080cf500019
:100f80000b003a00e00f5400e08f5c00e00f5d00c2
:100f9000e08f5d0006003d006000b8006011b80001
:100fa00008045000898458000a0559008b855900af
:100fb000bfb39700e88f530003003200f08f530057
:100fc00045003a00020037003600200001003700db
:100fd00046002000e00f5400e08f5c00e00f5d0051
:100fe000e08f5d0005003a005e089000810120005e
:100ff000a1b79f000000e000080032003fb1970059
:101000000200e90008006000cfb19700634078005b
:1010100090df9f0074012000a4b79f008602780033
:101020008502e900050033008b05d1000a85d30055
:101030008984d3000884d300f9ff3700089fbe00dd
:101040000a97be00afb397000700e90021fc2f000c
:101050008f804000008240003fb197008202e9008b
:1010600012003700afb397008703e900a7b79f00ce
:1010700000806200cfb09700615278003e00be0051
:101080002e01be00860378008703e90005003300c7
:101090008381d1000281d3008180d3000080d300fe
:1010a000f9ff3700009fbe000297be003e00be0061
:1010b0002e01be00e00f5000e08f5800e00f5900f5
:1010c000e08f5900d6003400afb397000700e0006e
:1010d000e4ff3c00d2003700ae60900080c6b30051
:1010e00080cf50000b00320006003c000104e000fd
:1010f000080032006640500080cf500073003a0074
:1011000004003700c0c6b30080cf50006f003a0023
:1011100031003700080178000800e00005003a00bf
:101120005e08900081012000a1b79f000000e00050
:1011300009003200bfb19700110009000381d800f7
:101140008000fd004fb297006440780090df9f0060
:1011500075012000a5b79f00bfb3970011000900db
:101160000781d80080017800afb097000100e90046
:1011700022fc2f000f014100000241000c0037004b
:10118000bfb29700110009008501d8000001780066
:10119000afb397008703e900a7b79f000590b90098
:1011a00000805100cfb09700615278008201780032
:1011b0000300e000030034002fb197000200e000bc
:1011c000efff3c0003007800cf80de0001017800d3
:1011d000820178003a0037000806be00e00f540094
:1011e000e08f5c0005003a005e089000830120005b
:1011f000a3b79f000000e000090032003fb2970053
:101200006121b9000c00be00d9000700cfb29700e1
:101210006540780090df9f0077012000a7b79f000e
:101220003fb297006121b9000c00be00d300070057
:101230000006be00afb297000500e90027fc2f00b2
:101240008f8343008083430097b79f0011003700ce
:101250003fb197006114b9000801be000c00be0048
:10126000d60007000005be00afb197008301e9007a
:10127000a3b79f000801be00b7000700000056009a
:101280001fb29700cfb297006552780094b79f00c5
:101290000a06be00e00f5600e08f5e000300340037
:1012a000afb397000700e000e9ff3c004feade0023
:1012b000cfa2de000c00be0004017800840178009b
:1012c000009fbe000297be0055003700e00f54009b
:1012d000e08f5c00e00f5d00e08f5d0005003a00ec
:1012e0005e08900081012000a1b79f000000e0008f
:1012f0000d0032003fb1970002027800cfa2de005d
:1013000005037800860378000800be000a01be00cd
:101310003a0107004fb297006440780090df9f00c9
:1013200075012000a5b79f003fb197000202780029
:10133000cfa2de0005037800860378000800be0017
:101340000a01be0026010700009fbe000297be00f2
:10135000afb197000300e90024fc2f000f02420008
:101360000006420020003700bfb297000504780055
:10137000cfc4de00090578008a0578000802be00a7
:101380000a03be005fa89700efa897007fa9970007
:101390008fb197001d010700d0b79f00e1b79f00f4
:1013a000f2b79f0083bf9f00afb397008703e900a8
:1013b000a7b79f000802be000a03be0099010700fc
:1013c0005faa970000005200cfb2970065567800e0
:1013d0005fb09700efb097007fb197008fb997008b
:1013e000009fbe000297be003e00be002e01be0060
:1013f000d0af9f00e1af9f00f2af9f0083b79f0087
:10140000e00f5000e08f5800e00f5900e08f5900c6
:1014100003003400afb097000100e000d2ff3c00b1
:101420003fb19700e80f510013003a000e109000f2
:101430000038a30010003200afb19700f78f5100c1
:1014400006003e0024fc2f000f02420083004200f1
:1014500000c3b300914f100007003200afb29700f5
:101460008502e900a5b79f0000c3b30027fc2f0049
:101470008f83430080f37a00afb197007881110029
:10148000120f98006e00900024fc2f000f02420003
:1014900083004200bbfb07001e0990005e0890001d
:1014a000800f510006003d0002005000000f980020
:1014b0000e1090000040a100001798000f003700a8
:1014c0000000e0000d003d000e1090007400600070
:1014d000f00f500009003a007e089000fe009000d6
:1014e000010050008e0890000100500002005000e2
:1014f0004240a90001003400000f98004f07780017
:101500004f06be004f05be004f04be002f03b100c2
:101510000000060080007800010037000000e800ad
:101520001004e000fdff3a0001005000000006003a
:101530008001eb00040037008301e80090cf100029
:10154000040032000000e800828f5100faff3a00e8
:101550000000eb0000000600020ab900001bb90001
:101560000200b80081004200810043000000060034
:10157000020007000400be00000006006022b80060
:10158000060220000000d0008180d2000482d20038
:101590008582d2000000a0000202520083825a001d
:1015a000030031000202420083824a000000a100d1
:1015b0000603e900f3ff3a0000000600839f68007d
:1015c0000100e00002003d0060001000e080180013
:1015d0000300e00002003d0060011100e0811900fd
:1015e000e6ff07004f00e00002003b006000100033
:1015f000e080180000000600881f780000047800d2
:101600005001be004000be0004004000858048003c
:101610000601490087814900009cbe000294be007b
:101620000400e1000588e1000690e1000798e10070
:1016300002003100680044001008e8004f04780000
:1016400000000600f4874700889fbe008a9fbe0006
:101650008c9fbe008e1f78000205be000004be00f5
:10166000d4b79f00e5b79f00f6b79f0087bf9f00e4
:101670000000eb00c0b79f00b0b79f00a0b79f006d
:1016800090b79f0080b79f000d042000bfb0970067
:101690004fb09700000140000000e0000f003d0047
:1016a0004f08de0000007100c0b79f009e000700d9
:1016b00001003d0012002000a100070001003d00d4
:1016c00012002000a6000700b1000700b6000700c6
:1016d0000f004000c8ff0700220037004f08de005f
:1016e00000067100ccb79f008f00070001003d008d
:1016f000120020009200070001003d0012002000af
:1017000097000700a20007000fb297009fb2970052
:101710002fb39700bfb39700a90007000000520045
:1017200081805a0002015b0083815b0080b79f00cb
:1017300091b79f00a2b79f00b3b79f000007eb00cf
:101740009f0007000020e10001a8e10002b0e100d5
:1017500003b8e100010031001e0020000e00560019
:10176000c0b79f004fb297000400e00007003500ab
:1017700010002000010020006011b8000804700073
:10178000898470000a0571008b8571008d06e9005f
:10179000beff3a000400e00003003d0082000700a5
:1017a0000f00400094ff07004fa897000000e000e2
:1017b00004003a000fb497009fb497002fb597002c
:1017c000bfb59700940007004f0778004f06be0092
:1017d0004f05be004f04be004f01b10000000600df
:1017e000881f780018002000881f780095ff0700e8
:1017f0008f87e9004f04780000000600801feb008f
:1018000090ff07008f87e90000000600889fbe0058
:101810008a9fbe008c1f78006e00070007003d0005
:1018200073000700e00f5b00e08f5b0007003d00e6
:10183000320007000006eb00040037003400070008
:1018400002003d002a0007001c0020007200070073
:10185000e3ff07000203be000002be000c00e00030
:1018600001003200220007000400be000601be0095
:101870004f0678004f05be004f04be000000060072
:10188000889fbe008a9fbe008c1f78005100070011
:1018900005003d0056000700e00f5b00e08f5b0095
:1018a00006003d00040037001900070003003d005a
:1018b0006000b8006011b800100007005600070073
:1018c000ceff07000203be000002be000c00e000d5
:1018d00001003200060007000400be000601be0041
:1018e0004f0678004f05be004f04be000000060002
:1018f0006000b8006011b80000003700040250001a
:1019000085825800060359008783590000000600ad
:101910000006eb00e00f5200e08f5a00e00f5b0082
:10192000e08f5b00000006000180400090b79f0040
:101930000001eb008fb097000100e00000000600fe
:101940000200700090b79f000180400080b79f00a8
:101950000001eb00ffa897000100e0000000060076
:101960000200700080b79f00018040006faa9700be
:10197000cf20de0001007000f0af9f0004024200a3
:10198000250007004f18de0000027200000006006c
:10199000e4af9f000804440089844c000a054d0010
:1019a0008b854d00000006003fb29700cfb2970034
:1019b0005fb39700efb3970000fe2f000000060012
:1019c0003fb09700cfb097005fb19700efb197009d
:1019d000000006000205be000004be00e00f50003b
:1019e000e08f5800e00f5900e08f5900000006001a
:1019f0006000b8006011b8000804500089845800e5
:101a00000a0559008b8559001c002000e00f520088
:101a1000e08f5a00000006000800be000a01be0068
:101a200000000600889fbe008a9fbe008c1f7800c1
:101a30000205be000004be000006eb00e00f5000ef
:101a4000e08f5800e00f5900e08f590007003d007b
:101a50006000b8006011b800080450008984580084
:101a60000a0559008b8559001c002000e00f520028
:101a7000e08f5a00e00f5b00e08f5b0002003d004a
:101a80000f0007000c00a2000800be000a01be0003
:101a9000120007000203be000002be000c00e000be
:101aa00001003200060007000400be000601be006f
:101ab0004f0678004f05be004f04be000000060030
:101ac0006000b8006011b800040250008582580020
:101ad000060359008783590000000600889fbe0056
:101ae0008a9fbe008c9fbe000404b8000506b800a3
:101af0008904460060854e000606b8000a054600c7
:101b0000e0854e000706b8008b054600040eb800bd
:101b1000890446000a854e00e0854d00050eb80098
:101b20000a0546008b854e00060eb8008b05460060
:101b30000416b8000a0546008b854e000516b8004d
:101b40008b054600041eb8008b0546000800be0049
:101b50000a01be004f06be004f05be004f04be0086
:101b600000000600881f78008a1f78004400f800f3
:101b7000080f200028028800000490001005900043
:101b8000a000900030019000c00190000300ca0046
:101b90000280ca000030cb001a00cd004604c3000a
:101ba0000100ca004604c0001e04c0000605c000b3
:101bb0000100cd0021009800050d7800eaba9700d9
:101bc000052578004400f9004f0578004f0478009f
:101bd00000000600801f78004000b0000008eb0005
:101be0004f007800801f7800100090000018eb0074
:101bf0000018eb000008eb004f0078000000060022
:101c00004400f800020f20002202880091007800b2
:101c10003000ca003080ca000000cb002080ca001b
:101c20000000cb003100cd004000ca000000cb0016
:101c30000000cb000010cb003100cd001180cc00a3
:101c40004400f900000006000cc2bf0066406000be
:101c5000e64f500002003a0090108000000006009d
:101c600090108000f00fb200000006000ec2bf000e
:101c70006100600000000600800078000cc2bf0018
:101c800066406000e64f500001003200f10fb200e4
:101c900081108800000006000fc2bf000004a200ef
:101ca00061006000000006000001780084c1bf00f0
:101cb000660060008080eb00e60f500002003a00f2
:101cc000020c8800110020000100780000000600ce
:101cd00080007800000178000cc2bf006640600000
:101ce000e64f500010003a00050037000fc2bf0059
:101cf0000018a300fdff3a00821088008180e800f0
:101d0000110178000200e000f8ff3a000000060030
:101d10000fc2bf000018a300fdff3a000100fb0046
:101d2000801088000201e800924078000104e00081
:101d3000f7ff3a00000006008520a9008540a900b1
:101d4000e7416000c419dd0081092000914078005e
:101d5000f2c8b30082c0600083c070008000fd0044
:101d600098e0b7008000fd00800178000307b20012
:101d7000c419de00910920009140780082cfb300a1
:101d800082c0600083c070008000fd0099e0b70051
:101d90008000fd00680160004311de000241410047
:101da000d1082000914078000114a10082c0700089
:101db0008000fd008de0b7008000fd000008b2004b
:101dc0004700de004200dd00d1082000914078008d
:101dd0000124a10080c07000010078008de0b700f0
:101de000000006008460a900e7416000c419dd001e
:101df0005109200091407800f2c8b30082c0600011
:101e000083c070008000fd0095e0b7008000fd00f9
:101e1000680060004300de004300dd00c1082000d0
:101e2000914078000134a10080c07000010078006a
:101e30008ce0b700000006000021ef0011088800c8
:101e4000200888000000060084c0a900e741600067
:101e5000710920009140780082cfb30082c06000f9
:101e600083c070008000fd0097e0b7008000fd0097
:101e7000680060004300de004600dd00c10820006d
:101e8000914078000164a10080c0700001007800da
:101e90008ce0b700000006000621ef006108880012
:101ea000800888001061a900000006000080fb0087
:101eb000000040000128200060807800000006003b
:101ec00084e0a900e7416000c419dd007109200029
:101ed00091407800f2c8b30082c0600083c07000f7
:101ee0008000fd0097e0b7008000fd006800600002
:101ef0004300de004700dd00c1082000914078006b
:101f00000174a10080c07000010078008ce0b7006f
:101f1000000006000a21ef00710888009008880080
:101f2000000006008c40a90080cfb3008461b60099
:101f30008440a900000006008440a900e741600039
:101f4000510920009140780082cfb30082c0600028
:101f500083c070008000fd0095e0b7008000fd00a8
:101f6000680060004300de004200dd00c108200080
:101f7000914078000124a10080c070000100780029
:101f80008ce0b700000006000002780080cfb300ac
:101f90008461b600010c8800120c8800240c8800b3
:101fa000000006008560a900e7416000c419dd005b
:101fb0009109200091407800f2c8b30082c060000f
:101fc00083c070008000fd0099e0b7008000fd0034
:101fd000680060004300de004300dd00d1082000ff
:101fe000914078000134a10080c0700001007800a9
:101ff0008de0b700000006004315880054158800e6
:102000002215880011158800001588000000d100f5
:102010006140600000404000012a200091407800ab
:102020000114a10080c0700001007800a0e2b70098
:0420300000000600a6
:020000040000fa
:10000800261c0000261c0000261c0000261c0000e0
:10001800261c0000261c0000261c0000261c0000d0
:10002800261c0000261c0000261c0000f0160000fc
:10003800261c0000261c000014170000261c0000c7
:10004800261c000070100000261c0000d21a0000b8
:10005800261c0000261c0000261c0000261c000090
:10006800261c0000261c0000261c0000261c000080
:10007800261c0000261c0000261c0000261c000070
:10008800261c0000261c0000261c0000261c000060
:10009800261c0000261c0000261c0000261c000050
:1000a800261c0000261c0000261c0000261c000040
:1000b800261c0000261c0000261c0000261c000030
:1000c800261c0000261c0000261c0000261c000020
:1000d800261c0000261c0000261c0000261c000010
:1000e800261c0000261c0000261c0000261c000000
:0800f800261c0000261c00007c
:020000040000fa
:10010800261c0000261c0000261c0000261c0000df
:10011800261c0000261c0000261c0000261c0000cf
:10012800261c0000261c0000261c0000f0160000fb
:10013800261c0000261c000014170000261c0000c6
:10014800261c000070100000261c0000d21a0000b7
:10015800261c0000261c0000261c0000261c00008f
:10016800261c0000261c0000261c0000261c00007f
:10017800261c0000261c0000261c0000261c00006f
:10018800261c0000261c0000261c0000261c00005f
:10019800261c0000261c0000261c0000261c00004f
:1001a800261c0000261c0000261c0000261c00003f
:1001b800261c0000261c0000261c0000261c00002f
:1001c800261c0000261c0000261c0000261c00001f
:1001d800261c0000261c0000261c0000261c00000f
:1001e800261c0000261c0000261c0000261c0000ff
:0801f800261c0000261c00007b
:020000040000fa
:102034002d200000436f00006d6d0000616e0000f4
:1020440064200000416300006365000070740000b8
:10205400656400002e0a00000a0d00000000000064
:102064002d2000004241000044200000436f000086
:102074006d6d0000616e0000642e00000a0a00000d
:102084000d00000000000000f1f20000f4f8000070
:10209400f1f30000f2f60000f4fc0000f8f900008f
:1020a4001f2f00004f8f00001f3f00002f6f000004
:1020b4004fcf00008f9f00000a52000065610000ae
:1020c400643a00002025000064000000546500000c
:0c20d40073740000652100000000000093
:020000040000fa
:1020e0003600f800809fbe00829fbe00849fbe0025
:1020f000869fbe00881f78000000fa008520a90096
:102100000f003700f0418000f4004000d041800013
:10211000808f50000300320040c8bf00e14f5000e4
:1021200002003a00c8fe070005003700d8418000d1
:10213000c5fe0700004c78000800e800d041880088
:10214000cafe07000004e000eeff3a000080fa003b
:102150004f0478004f03be004f02be004f01be0087
:102160004f00be003600f900004006000200fa00f1
:10217000f0418000f4004000e0418000808f50007a
:1021800005003a00f0418000e0418800e041800015
:10219000d04188003b003700d1418000e041800001
:1021a000808f50003700360040c8bf000004e000b8
:1021b00034003a00e0418000104078000000fb004d
:1021c000adfe0700e1418000114078000000fb00f7
:1021d000000f78000100e800e04188001e00780050
:1021e000ea0f5000240032001e007800ed0f50006e
:1021f000190032001e007800e80f50000100320084
:102200001d003700f04180008000e800e0418000c0
:10221000808f50000a0031000002200096fe070067
:102220008000200094fe0700e04180000080e9006b
:10223000e0418800e0418000d04188000e00370076
:10224000e04180000000e900e0418800e0418000ba
:10225000d041880008003700a000200086fe07005b
:10226000f0418000e0418800e0418000d0418800da
:1022700010c0b30040e8b70087fe07000004e0008c
:10228000fdff3a000080fa00000006000e00fa0090
:10229000100798000000eb00000f78001e0090006f
:1022a0000000e80090407800e0c2b30080cf50000a
:1022b000030032000000eb00200798008100370087
:1022c0001e009000104078008000fb001e0090006f
:1022d0000000e800100798006109b90000fd2f0018
:1022e000f1ff2f000201400083814800320798006f
:1022f0004307980090002000010020003e0190005c
:10230000ce019000800f5100818f59002b003e00bc
:102310003e009000ce0090000060010009003700f0
:102320000b0037000d0037000f0037001100370099
:102330001300370015003700170037001900370069
:102340001b0037000000eb00000f78001d00370075
:1023500000102000000f78001a0037000020200035
:10236000000f78001700370000302000000f7800c1
:102370001400370000402000000f780011003700e3
:1023800000502000000f78000e0037000060200091
:10239000000f78000b00370000702000000f78005d
:1023a0000800370000802000000f7800050037008b
:1023b00000902000000f7800020037000000eb00c2
:1023c000000f78001e0090000000e8001007980041
:1023d0001e009000104078000000fb006101b90071
:1023e00000fd2f00f1ff2f00020140008381480013
:1023f0005207980063079800900020000100200019
:102400005e019000ee019000800f5100818f590015
:1024100028003e005e009000ee0090000060010089
:1024200026003700080037000a0037000c0037008c
:102430000e0037001000370012003700140037007c
:1024400016003700180037009e0078007a8f400091
:102450001a003700320320001e0f4100170037001a
:10246000d30420001e8f41001400370060062000b6
:102470001e0f400011003700010820001e8f400091
:102480000e003700a20920001e0f41000b0037008c
:10249000330b20001e8f410008003700d00c2000b5
:1024a0001e0f400005003700610e20001e8f400007
:1024b000020037000000eb00000f78001e017800da
:1024c000220798002e0090000080fa00000006000d
:1024d0007c00fa000e80e800a10129001700090025
:1024e000315878008001b1007a00470021032900ab
:1024f00012000900315878003001b1007a0f47000e
:1025000040c8bf00e14f500027023a00e14180007f
:10251000114078000000fb00503f98000100e800e7
:10252000e0418800d0062000de389000808f500007
:10253000a401320030072000de389000808f500068
:10254000010032000d02370030072000cafd0700ed
:10255000e0418000403f98004e3890009040780065
:102560000040eb0060f7980040c7b30080cf5000f8
:1025700002003a0011c0b30061f79800ce38900015
:102580000100e800e04188006ef090000004e000e7
:10259000fa01320040072000b7fd0700e14180004a
:1025a000114078000000fb00203f98000100e80087
:1025b000e0418800d0062000ae389000808f5000a7
:1025c0000b013200d0062000ae389000808f500002
:1025d00009003c0040062000ae389000808f50007b
:1025e0007000320060062000ae389000808f5000ee
:1025f0006e0132007101370000072000ae389000f4
:10260000808f50003600320030072000ae38900036
:10261000808f500001003200680137003007200031
:1026200095fd0700e0418000103f98001e389000a3
:10263000904078000040eb0000f7980000c2b30023
:1026400080cf500002003a0011c0b30001f798009b
:102650009e3890000100e800e04188000ef09000f4
:102660000004e000c5013200e041800090407800a5
:1026700010c3b30080cf500004003a000e8fe80072
:1026800010c0b30030e8b700bc013700e141800062
:10269000713798007e309000904078000040eb0049
:1026a00040ef980020c3b30080cf500002003a00f2
:1026b00011c0b30041ef9800fe3090000100e80027
:1026c000e04188004ee890000004e000ab013200d9
:1026d0000e8fe80010c0b30031e8b700a701370043
:1026e0000007200064fd0700e14180005137980099
:1026f0005e309000904078000040eb0000ef9800c2
:1027000000c2b30080cf500002003a0011c0b300f5
:1027100001ef9800de3090000100e800e041880001
:102720000ee890000004e00094013200e0418000d7
:102730009040780010c3b30080cf500004003a00ee
:102740000e8fe8000040eb0030e8b7008b01370047
:10275000e1418000313798003e3090009040780091
:102760000040eb0040e7980020c3b30080cf50004a
:1027700002003a0011c0b30041e79800be3090005b
:102780000100e800e04188004ee090000004e00015
:102790007a0132000e8fe8000040eb0031e8b7000c
:1027a000760137004006200033fd0700e04180003d
:1027b0009040780000c2b30080cf50001f003a0064
:1027c000e04180000000e800e0418800e041800036
:1027d0009040780010c3b30080cf500003003a004f
:1027e0000e8fe8006203070064013700e1418000ba
:1027f000113798001e309000904078000040eb00a8
:1028000000e7980020c3b30080cf500002003a00d8
:1028100011c0b30001e798009e3090000100e8006d
:10282000e04188000ee090000004e0005301320017
:102830000e8fe8005503070050013700e14180008a
:10284000114078000000fb00702f98000100e800a4
:10285000e041880030062000fe289000808f500064
:102860000500320080062000fe289000808f500076
:102870003000320041013700e0418000602f9800b5
:102880006e289000904078000040eb0020df980018
:1028900000c2b30080cf500002003a0011c0b30064
:1028a00021df9800ee2890000100e800e041880058
:1028b0002ed890000004e00030013200e04180009a
:1028c0009040780010c3b30080cf500004003a005d
:1028d0000e8fe80010c0b30032e8b70027013700c0
:1028e000e1418000412f98004e28900090407800f0
:1028f0000040eb0060d7980020c3b30080cf5000a9
:1029000002003a0011c0b30061d79800ce289000b1
:102910000100e800e04188006ed090000004e00073
:10292000160132000e8fe80010c0b30033e8b70084
:1029300012013700e1418000212f98002e289000dd
:10294000904078000040eb0020d7980000c2b30010
:1029500080cf500002003a0011c0b30021d7980088
:10296000ae2890000100e800e04188002ed09000e1
:102970000004e00001013200e04180009040780056
:1029800010c3b30080cf500004003a000e8fe8005f
:102990000040eb0032e8b700f8003700e14180006a
:1029a000012f98000e289000904078000040eb0026
:1029b00060cf980020c3b30080cf500002003a00df
:1029c00011c0b30061cf98008e2890000100e8008c
:1029d000e04188006ec890000004e000e70032008b
:1029e0000e8fe8000040eb0033e8b700e30037004b
:1029f000d0062000a0fc0700e141800011407800d3
:102a00000000fb00602798000100e800e04188001a
:102a100060062000ee209000808f500005003200fc
:102a200080062000ee209000808f500030003200a1
:102a3000d2003700e0418000502798005e209000cf
:102a4000904078000040eb0000cf980000c2b30037
:102a500080cf500002003a0011c0b30001cf9800af
:102a6000de2090000100e800e04188000ec89000e0
:102a70000004e000c1003200e04180009040780096
:102a800010c3b30080cf500004003a000e8fe8005e
:102a900010c0b30034e8b700b8003700e14180004f
:102aa000312798003e209000904078000040eb00d5
:102ab00040c7980020c3b30080cf500002003a0006
:102ac00011c0b30041c79800be2090000100e8008b
:102ad000e04188004ec090000004e000a7003200f2
:102ae0000e8fe80010c0b30035e8b700a300370030
:102af000e1418000112798001e209000904078004e
:102b00000040eb0000c7980000c2b30080cf500027
:102b100002003a0011c0b30001c798009e20900047
:102b20000100e800e04188000ec090000004e000d1
:102b300092003200e04180009040780010c3b30062
:102b400080cf500004003a000e8fe8000040eb00f8
:102b500034e8b70089003700e1418000711f980018
:102b60007e189000904078000040eb00407f980075
:102b700020c3b30080cf500002003a0011c0b30060
:102b8000417f9800fe1890000100e800e0418800b5
:102b90004e7890000004e000780032000e8fe800cc
:102ba0000040eb0035e8b7007400370060062000f5
:102bb00031fc07000e8fe800700037007a0f4700e5
:102bc0006e003700d00620002bfc0700e14180009a
:102bd000511f98005e189000904078000040eb0074
:102be000007f980040c6b30080cf500002003a003a
:102bf00011c0b300017f9800de1890000100e800ca
:102c0000e04188000e7890000004e0005b00320094
:102c10004006200018fc0700e1418000311f9800a9
:102c20003e189000904078000040eb0040779800fc
:102c300030c6b30080cf500002003a0011c0b3008c
:102c400041779800be1890000100e800e04188003c
:102c50004e7090000004e000480032003006200072
:102c600005fc0700e1418000114078000000fb00f6
:102c7000101f98000100e800e04188009006200045
:102c80009e189000808f5000310032009006200086
:102c90009e189000808f500005003c0040062000e8
:102ca0009e189000808f50002f00320033003700b4
:102cb000000720009e189000808f50001e003200f8
:102cc000200720009e189000808f500001003200e5
:102cd0002a00370020072000e7fb0700e0418000c2
:102ce000001f98000e189000904078000040eb0004
:102cf000606f980000c2b30080cf500002003a001d
:102d000011c0b300616f98008e1890000100e800b8
:102d1000e04188006e6890000004e0001700320077
:102d20000e8fe800e0418000104078000000fb00ba
:102d3000ddfb07001100370000072000cefb070075
:102d4000e04180000000e800e04188000b0037000f
:102d500090062000c8fb0700e04180000000e8006a
:102d6000e04188000500370040062000c2fb070054
:102d7000e04180000000e800e0418800f041800070
:102d8000e0418800e0418000d04188001e007800ca
:102d9000cffb0700c0fb07000004e000fdff3a0086
:102da0000040eb0040e8b7000080fa000000060099
:102db0000000fa00e0f02f00dffb07000000280011
:102dc000601088000040200070108800f000200093
:102dd000a01088000000eb000080fa000000060050
:102de0003600f800809fbe00829fbe00849fbe0018
:102df000869fbe000000fa0030c8bf000004e0005b
:102e000001003200340107008460a9000080fa004c
:102e10004f03be004f02be004f01be004f00be0078
:102e20003600f900004006003600f800809fbe0022
:102e3000829fbe00849fbe00869fbe000000fa00f5
:102e40007801070084c0a9000080fa004f03be008b
:102e50004f02be004f01be004f00be003600f90019
:102e6000004006000000fa000000eb003016880069
:102e7000f0ff20004015880090ff2f00d9fb0700cd
:102e80008080eb00d0f92f00ebfb070090ff2f00b4
:102e9000edfb07008080eb00d0f92f00fefb070060
:102ea0000080fa00000006000c00fa00008fbe004f
:102eb000424798003407980045079800234f980030
:102ec0002e4890000004e0003e0032004e4090008a
:102ed0000004e0003600320018003700b0418000e6
:102ee000e30f5000020034000000eb00b041880006
:102ef0005016800000017800f200b300b14180005c
:102f00006004290000804000104078000080fb0031
:102f100000006100501688000100e800b041880000
:102f20003e009000ce0090002f0207000080eb00d2
:102f30008080eb001e0f40005e9748001e00be0020
:102f4000e00f5000e08f5800e4ff3a005a003700cd
:102f5000b04180000000e00002003d003000200091
:102f6000b04188005016800000017800f200b300e4
:102f7000b1418000600429000080400010407800ca
:102f80000080fb0000006100501688000100e9008d
:102f9000b04188003e009000ce0090001202070071
:102fa0000080eb008080eb001e0f40005e97480021
:102fb0001e00be00e00f5000e08f5800e4ff3a0012
:102fc0003d0037004e4090000004e0003600320023
:102fd00018003700b0418000e70f500002003400b5
:102fe0000000eb00b041880050168000000178001e
:102ff000f200b300b1418000a0042900008040002d
:10300000104078000080fb0000006100501688002e
:103010000100e800b04188003e009000ce00900022
:10302000f10107000080eb008080eb001e0f4000e4
:103030005e9748001e00be00e00f5000e08f580071
:10304000e4ff3a001c003700b04180000000e000bf
:1030500002003d0070002000b04188005016800042
:1030600000017800f200b300b1418000a004290003
:1030700000804000104078000080fb0000006100ec
:10308000501688000100e900b04188003e00900021
:10309000ce009000d40107000080eb008080eb00a0
:1030a0001e0f40005e9748001e00be00e00f50005b
:1030b000e08f5800e4ff3a000080fa0000000600ac
:1030c0000c00fa00008fbe004247980034079800b9
:1030d00045079800234f98002e4890000004e00018
:1030e0003e0032004e4090000004e0003600320006
:1030f00018003700c0418000e30f50000200340088
:103100000000eb00c041880051168000000f200035
:1031100000817000c141800020052900008040002e
:10312000104078000080fb0000006100501688000d
:103130000100e800c04188003e009000ce009000f1
:10314000a90107000080eb008080eb001e0f40000b
:103150005e9748001e00be00e00f5000e08f580050
:10316000e4ff3a005a003700c04180000000e00050
:1031700002003d0030002000c04188005116800050
:10318000000f200000817000c1418000200529004f
:1031900000804000104078000080fb0000006100cb
:1031a000501688000100e900c04188003e009000f0
:1031b000ce0090008c0107000080eb008080eb00c7
:1031c0001e0f40005e9748001e00be00e00f50003a
:1031d000e08f5800e4ff3a003d0037004e40900079
:1031e0000004e0003600320018003700c0418000c3
:1031f000e70f5000020034000000eb00c0418800df
:1032000051168000000f200000817000c141800035
:103210006005290000804000104078000080fb001d
:1032200000006100501688000100e800c0418800dd
:103230003e009000ce0090006b0107000080eb0084
:103240008080eb001e0f40005e9748001e00be000d
:10325000e00f5000e08f5800e4ff3a001c003700f8
:10326000c04180000000e00002003d00700020002e
:10327000c041880051168000000f200000817000be
:10328000c1418000600529000080400010407800a6
:103290000080fb0000006100501688000100e9007a
:1032a000c04188003e009000ce0090004e01070013
:1032b0000080eb008080eb001e0f40005e9748000e
:1032c0001e00be00e00f5000e08f5800e4ff3a00ff
:1032d0000080fa00000006000000fa0034c8bf00b9
:1032e0000004e0002700320032c8bf000004e00004
:1032f00012003200b0418000e30f500002003400a1
:103300000000eb00b04188005016800000017800fa
:10331000f200b300b1418000600429000080400049
:10332000104078000080fb0000006100501688000b
:103330000100e800b041880038003700b04180004b
:103340000000e00002003d0030002000b041880095
:103350005016800000017800f200b300b1418000f7
:103360006004290000804000104078000080fb00cd
:1033700000006100501688000100e900b04188009b
:103380002600370032c8bf000004e00012003200ff
:10339000b0418000e70f5000020034000000eb0055
:1033a000b04188005016800000017800f200b300a0
:1033b000b1418000a0042900008040001040780046
:1033c0000080fb0000006100501688000100e8004a
:1033d000b041880011003700b04180000000e000db
:1033e00002003d0070002000b041880050168000af
:1033f00000017800f200b300b1418000a004290070
:1034000000804000104078000080fb000000610058
:10341000501688000100e900b04188000080fa00e1
:10342000000006000000fa0035c8bf000004e000fc
:103430002700320033c8bf000004e0001200320051
:10344000c0418000e30f5000020034000000eb0098
:10345000c041880051168000000f200000817000dc
:10346000c141800020052900008040001040780004
:103470000080fb0000006100501688000100e80099
:10348000c041880038003700c04180000000e000e3
:1034900002003d0030002000c0418800511680002d
:1034a000000f200000817000c1418000200529002c
:1034b00000804000104078000080fb0000006100a8
:1034c000501688000100e900c0418800260037003e
:1034d00033c8bf000004e00012003200c041800089
:1034e000e70f5000020034000000eb00c0418800ec
:1034f00051168000000f200000817000c141800043
:103500006005290000804000104078000080fb002a
:1035100000006100501688000100e800c0418800ea
:1035200011003700c04180000000e00002003d00b3
:1035300070002000c041880051168000000f20005c
:1035400000817000c14180006005290000804000ba
:10355000104078000080fb000000610050168800d9
:103560000100e900c04188000080fa000000060068
:103570000000fa0050168000010f200001006000da
:10358000501688000080fa00000006000000fa00d3
:10359000501680006f006000501688000080fa000e
:1035a000000006003600f800809fbe00829fbe002b
:1035b000849fbe00869fbe001000fa000040eb0012
:1035c0003afa0700801f7800e0052900801f780084
:1035d0000e0078005af30700e487570080062900a0
:1035e000bbf907008560a9000080fa004f03be0008
:1035f0004f02be004f01be004f00be003600f90072
:10360000004006000000fa000080200030408800e2
:10361000a0ff200040408800608020006df9070076
:1036200090992500504288009099210060428800be
:10363000608f20007042880061802000a0842000fc
:103640006ff9070010ff2f001dfa0700f1ff20009f
:10365000d0f82f002ffa070032fa070050ff2f0092
:1036600035fa07000001eb008000eb00e0ff2f00bf
:1036700045fa070080ff2f004afa070090a52e00a8
:10368000b040880080bc2000c0408800f0c72d00fa
:10369000d0408800f0ff2e00904088000000eb0032
:1036a000a0408800a040800091408000b24080008f
:1036b000c5408000d640800000027800810178007b
:1036c00085007800060078004bfa07008560a900a5
:1036d00080eb250070408800b09f23006040880088
:0836e0000080fa000000060062
:020000040000fa
:1036e8003a08000008000000020000001c081c0046
:1036f800081c0800000000001c080000140000005e
:1037080000000000300800000a000000020000006d
:10371800000001000100000000000000000000009f
:103728004208000008000000000000004a080000ed
:103738000600000002000000000000000000000079
:103748000608000016000000000000000008000045
:103758000600000000000000fa0f0000060000004c
:1037680000000000720800001200000002000000c3
:103778000100020000040000080010000000000022
:10378800202b2d00233000008408000008000000d2
:1037980002000000686a6c00747a4c0000000000a7
:1037a8005008000022000000020000003031320002
:1037b8003334350036373800396162006364650098
:1037c800660030003132330034353600373839007e
:1037d800414243004445460000000000000000004c
:020000040000fa
:1037e800f03fb1000180b10006003500ee0309008a
:1037f80000000000403fb1000180b100fbff3d0028
:103808001000b000203fb000020035000080090021
:1038180000000000000006000000fa000300070096
:1038280050fa070028fb0700fdff37000000fa00e8
:103838005dfd070089fd070070ff07000080fa00a2
:043848000000060076
:020000040000fa
:04384c000000fe007a
:00000001FF
