:020000040000fa
:080000000001040000000000f3
:020000040000fa
:10020000ef982000aefe20000e01880000000000e4
:100210000c000700a0692100010020001f0007005a
:10022000000020000000e000020032000000020098
:100230000000000072180200000000000040da0018
:100240000000fe004440a900000920000000e0007a
:100250000300320000002000a00188004440a800f4
:1002600000000600f03fb1000180b100060035003b
:10027000ee03090000000000403fb1000180b10022
:10028000fbff3d001000b000203fb0000200350031
:1002900000800900000000000000060091018800b5
:1002a000800078000000eb0015003700e28040007d
:1002b00032a0b4009101ba00e280400032a0b40044
:1002c0009102ba00e280400032a0b4000002eb00cc
:1002d000472bde00f507b200602ce10004003a0075
:1002e0000059eb008301e900fdff3e0004003700e8
:1002f0006128e100010032000082eb0004000700e9
:100300001101ba000200e000e8ff3a000000060018
:100310003159ba008301e9000c0032002159ba00ba
:100320008301e900080032000400e00003003a0005
:10033000e280400032a0b400f5ff370011d9ba00c6
:100340008301e900faff3a008100e800e180400003
:1003500032a0b400000006000040da000000fe00f9
:100360000a00fa0080017800e20f500028003e00e9
:10037000604c8000e10f500008003200e0212000b6
:100380000000e000050032006421200085212000eb
:10039000a62120008001780004003700c42020003e
:1003a000e520200006212000432120001440900079
:1003b0000004e000040035008009eb0014409000c8
:1003c0000074a00010429800154090000028a3007f
:1003d00003003a00154090000024a00090429800cd
:1003e0008001eb0007003700154090000008a300d3
:1003f000fdff320063c078000000fb00000b7800b6
:100400008301e800828f5100f7ff3a0008003700af
:1004100030002000b0bf9f00c3bf9f00d1bf9f002e
:10042000e2bf9f006a80570000c0da006fb99700f2
:10043000020078000080fa0000000600881f7800a3
:10044000000478005001be004000be0004004000df
:10045000858048000601490087814900009cbe0054
:100460000294be000400e1000588e1000690e1006e
:100470000798e10002003100680044001008e8001d
:100480004f04780000000600f4874700889fbe00f4
:100490008a9fbe008c9fbe008e1f78000205be00a2
:1004a0000004be00d4b79f00e5b79f00f6b79f00d9
:1004b00087bf9f000000eb00c0b79f00b0b79f0050
:1004c000a0b79f0090b79f0080b79f000d04200049
:1004d000bfb097004fb09700000140000000e0005f
:1004e0000f003d004f08de0000007100c0b79f0004
:1004f0009e00070001003d0012002000a10007003f
:1005000001003d0012002000a6000700b100070016
:10051000b60007000f004000c8ff070022003700a8
:100520004f08de0000067100ccb79f008f00070067
:1005300001003d00120020009200070001003d0074
:100540001200200097000700a20007000fb29700da
:100550009fb297002fb39700bfb39700a900070081
:100560000000520081805a0002015b0083815b0021
:1005700080b79f0091b79f00a2b79f00b3b79f00bd
:100580000007eb009f0007000020e10001a8e10048
:1005900002b0e10003b8e100010031001e002000bc
:1005a0000e005600c0b79f004fb297000400e00055
:1005b0000700350010002000010020006011b80085
:1005c00008047000898470000a0571008b85710031
:1005d0008d06e900beff3a000400e00003003d0084
:1005e000820007000f00400094ff07004fa897000b
:1005f0000000e00004003a000fb497009fb4970099
:100600002fb59700bfb59700940007004f077800fb
:100610004f06be004f05be004f04be004f01b100a3
:1006200000000600881f780018002000881f78004e
:1006300095ff07008f87e9004f047800000006004f
:10064000801feb0090ff07008f87e9000000060085
:10065000889fbe008a9fbe008c1f78006e00070036
:1006600007003d0073000700e00f5b00e08f5b00b8
:1006700007003d00320007000006eb0004003700d1
:100680003400070002003d002a0007001c00200083
:1006900072000700e3ff07000203be000002be0075
:1006a0000c00e00001003200220007000400be0040
:1006b0000601be004f0678004f05be004f04be0085
:1006c00000000600889fbe008a9fbe008c1f780035
:1006d0005100070005003d0056000700e00f5b00d9
:1006e000e08f5b0006003d000400370019000700a2
:1006f00003003d006000b8006011b8001000070062
:1007000056000700ceff07000203be000002be0035
:100710000c00e00001003200060007000400be00eb
:100720000601be004f0678004f05be004f04be0014
:10073000000006006000b8006011b800000037003b
:10074000040250008582580006035900878359002f
:10075000000006000006eb00e00f5200e08f5a0098
:10076000e00f5b00e08f5b000000060001804000ae
:1007700090b79f000001eb008fb097000100e000f0
:10078000000006000200700090b79f00018040004a
:1007900080b79f000001eb00ffa897000100e00078
:1007a000000006000200700080b79f00018040003a
:1007b0006faa9700cf20de0001007000f0af9f000d
:1007c00004024200250007004f18de0000027200fc
:1007d00000000600e4af9f000804440089844c0038
:1007e0000a054d008b854d00000006003fb29700c2
:1007f000cfb297005fb39700efb3970000fe2f00d2
:10080000000006003fb09700cfb097005fb197009f
:10081000efb19700000006000205be000004be0014
:10082000e00f5000e08f5800e00f5900e08f5900b2
:10083000000006006000b8006011b8000804500015
:10084000898458000a0559008b8559001c00200036
:10085000e00f5200e08f5a00000006000800be00c2
:100860000a01be0000000600881f78008a1f780079
:100870004400f800080f20002802880000049000bf
:1008800010059000a000900030019000c001900081
:100890000300ca000280ca000030cb001a00cd005d
:1008a0004604c3000100ca004604c0001e04c00084
:1008b0000605c0000100cd0021009800050d78005c
:1008c000eaba9700052578004400f9004f05780042
:1008d0004f04780000000600801f78004000b00040
:1008e0000008eb004f007800801f78001000900097
:1008f0000018eb000018eb000008eb004f00780038
:10090000000006004400f800020f200022028800c8
:10091000910078003000ca003080ca000000cb008f
:100920002080ca000000cb003100cd004000ca008a
:100930000000cb000000cb000010cb003100cd0048
:100940001180cc004400f900000006000cc2bf007a
:1009500066406000e64f500002003a0090108000b0
:100960000000060090108000f00fb20000000600aa
:100970000ec2bf0061006000000006008000780029
:100980000cc2bf0066406000e64f5000010032001c
:10099000f10fb2008110880000000600800078008e
:1009a000000178000cc2bf0066406000e64f5000b6
:1009b00010003a00050037000fc2bf000018a30066
:1009c000fdff3a00821088008180e8001101780064
:1009d0000200e000f8ff3a00000006000fc2bf006e
:1009e0000018a300fdff3a000100fb008010880002
:1009f0000201e800924078000104e000f7ff3a00ad
:100a0000000006000fc2bf000004a20061006000e9
:100a1000000006008520a9008540a900e74160008c
:100a2000c419dd008109200091407800f2c8b300ac
:100a300082c0600083c070008000fd0098e0b700b5
:100a40008000fd00800178000307b200c419de00b9
:100a5000910920009140780082cfb30082c06000ed
:100a600083c070008000fd0099e0b7008000fd00a9
:100a7000680160004311de0002414100d1082000fe
:100a8000914078000114a10082c070008000fd0038
:100a90008de0b7008000fd000008b2004700de00d6
:100aa0004200dd00d1082000914078000124a1001f
:100ab00080c07000010078008de0b70000000600e3
:100ac0008460a900e7416000c419dd0051092000dd
:100ad00091407800f2c8b30082c0600083c070000b
:100ae0008000fd0095e0b7008000fd006800600018
:100af0004300de004300dd00c10820009140780083
:100b00000134a10080c07000010078008ce0b700c3
:100b1000000006000021ef0011088800200888006e
:100b20000000060084c0a900e741600071092000b0
:100b30009140780082cfb30082c0600083c0700013
:100b40008000fd0097e0b7008000fd0068006000b5
:100b50004300de004600dd00c1082000914078001f
:100b60000164a10080c07000010078008ce0b70033
:100b7000000006000621ef00610888008008880058
:100b80001061a900000006000080fb00000040008a
:100b90000128200060807800000006000001780035
:100ba00084c1bf00660060008080eb00e60f50004b
:100bb00002003a00020c88001100200001007800b9
:100bc0000000060084e0a900e7416000c419dd00d0
:100bd0007109200091407800f2c8b30082c0600023
:100be00083c070008000fd0097e0b7008000fd002a
:100bf000680060004300de004700dd00c1082000ff
:100c0000914078000174a10080c07000010078005c
:100c10008ce0b700000006000a21ef007108880090
:100c200090088800000006008c40a90084c1bf0025
:100c300081cfb3000140600084e1b7008440a90087
:100c4000000006008440a900e7416000510920002f
:100c50009140780082cfb30082c0600083c07000f2
:100c60008000fd0095e0b7008000fd006800600096
:100c70004300de004200dd00c10820009140780002
:100c80000124a10080c07000010078008ce0b70052
:100c900000000600431820009341780084cfb30081
:100ca00084c161008001fd0084e1b7008001fd0086
:100cb000010c8800120c8800200c8800000006003f
:100cc0000400fa00e0bf9f00e4815700812978000a
:100cd0000002eb000f0037006fb8970090407800db
:100ce0007fb89700104078000402e80080cf5000e1
:100cf000040032008180fb000080fb000080500077
:100d0000070037006fb897000000e800e0bf9f00c1
:100d10009309e800820f5200efff3a000000eb0059
:100d20000080fa00000006000c00fa00889fbe0058
:100d300000047800cfb09700f0ff2700d0bf9f00dd
:100d40008004eb0099bf9f0088bf9f00a8bf9f0051
:100d5000200c2000b0bf9f007881570070805700a2
:100d6000080007000fb89700094878000fb89700ef
:100d700008045000080078004f04be000080fa000c
:100d800000000600fe874700889fbe008a9fbe00c5
:100d90008c9fbe008e1f7800f0b79f00010778007f
:100da00082bf9f000000eb00a0b79f009f023700aa
:100db0008006eb0050c2b30080cf50000900320023
:100dc0000100fb00ffb09700a3020700e10f400005
:100dd00096023200afb097008100e800a1b79f00f3
:100de000920237009e407800d0c2b30080cf5000fe
:100df0000c00320007003c006d40500080cf5000d6
:100e00000a0032006b40400080cf50000e003a00d4
:100e10000800370000c3b30080cf50000a003a003a
:100e2000060037000d30a000050037000d00a000bf
:100e3000030037000d10a000010037000d20a000b6
:100e40000e07e800e7ff37000d18a300010032008d
:100e50000d00a1000d38a300010032000d20a100fb
:100e60000100fb0002fd2f0002004000e90f5000ce
:100e70000e003e000002eb00c4b79f008201780024
:100e8000cfb297006a28b9001e01fb0000014100a3
:100e900003014100c2b79f005e00fb000300400059
:100ea000e90f50000b003e00f5ff37000006eb0095
:100eb000ccb79f00a0c2b30080cf500005003a001d
:100ec0000fb89700c000780080bf9f00c1b79f0097
:100ed0000e07e8000001eb00b2b79f00e0c2b300cc
:100ee0009e4f100018003a000de0a0008e00e800b0
:100ef00064405000914f100002003200010778005a
:100f00000c0037000fba9700c402780084bf9f001e
:100f1000b5b79f000e87e8000b0037003fb697007b
:100f20006a60b9000000410003004000b0b79f00b4
:100f30000e07e8001e01fb0003fd2f000300410027
:100f4000e90f5000f5ff3600be407800e1d79f0062
:100f5000c0c6b30080cf5000220032000f003c001a
:100f60006940500080cf50007700320004003c0000
:100f70000104e000310232006b4050000f003700e6
:100f800040c6b30080cf500093003200654040005f
:100f900080cf50008b003a008f00370030c7b3007d
:100fa00080cf50001a00320007003c00644050001f
:100fb00080cf5000110032000040e80080cf500088
:100fc00080003a000f00370050c7b30080cf5000b8
:100fd000800032006340400080cf500079003a002a
:100fe00009003700000028000d48a30001003a0066
:100ff0000001200080867600d3ff37000d60a0003e
:10100000750037000d50a0000d70a0007200370071
:101010008fb897004100780081bf9f0000047800de
:101020000000e00001003a00689320008004eb001b
:10103000010037008104e80089007800088044003e
:101040001004e000fbff3a003fb197000200e0000f
:1010500003003200890f5100010031008204780042
:101060000002eb00e4af9f00cfb29700898f5200df
:101070000200360009805200e0af9f004368de00a6
:10108000e10660001b003a000d06780009003700f9
:10109000ffb0970000022000ef010700e10f4000c1
:1010a000030032002fb097000000e800a0b79f00b7
:1010b0000c06e800efa89700810f5600f4ff3a00f5
:1010c0000081eb00e2af9f000a0037008800780043
:1010d0003100fb0001047800ffb09700de0107003b
:1010e000e10f4000030032002fb297000402e80035
:1010f000a4b79f000900e90080047800e10f4000d8
:10110000f2ff3a000006eb000d00e0000a003a0092
:10111000c6013700ffb0970000022000ce01070093
:10112000e10f400003003200afb297008502e800f3
:10113000a5b79f000c06e8006fa89700800f560027
:10114000f4ff3a00b90137008fb8970041007800ea
:1011500081bf9f00cf80de0001017800820178000e
:101160000205be000004be000203be000002be0075
:101170004822de00482edd0004027600e4d79f00fe
:101180000d48a3000a0032000404e0000800320009
:10119000e14f42000600320071fd2f000180470040
:1011a0000448780018409800290020000200370009
:1011b000f0d79f001900200072fd2f000284470025
:1011c000a1ff370064fd2f000484470019002000b0
:1011d0009dff37000d0cb3000d007800000cb2002d
:1011e00028003a000d00e00005003d008fba97008e
:1011f0004505be004504be0085bf9f0014003700b2
:101200000d48a3000b0032000fbe97004c00be003b
:101210008cbf9f004f89de00cf91de000002be0030
:1012200002037800820378000605be000404be00b5
:10123000070037008fb897004100780081bf9f00fa
:1012400000047800cfc4de00090578008a05780024
:10125000e00f5400e08f5c00e00f5d00e08f5d0068
:101260001f003d003d00b3006000b8006011b800f1
:1012700008045000898458000a0559008b855900dc
:10128000170037000d00e00005003d000fb9970082
:101290004205be004204be0082bf9f00100037001e
:1012a0000d48a300070032000fba97004400be00ab
:1012b00084bf9f006011b8000205be000004be009c
:1012c000070037008fba97004500780085bf9f0060
:1012d00000047800090020000a0020000b00200014
:1012e0003fb697000c00e00007003a00e00f540002
:1012f000e08f5c00e00f5d00e08f5d0002003a00cf
:1013000010002000b0b79f008d007800010cb200e3
:10131000e1b79f0000042000808f500030003200b1
:1013200003003c000100e0000800320040003700ec
:10133000000820006fb19700800f510014003200a8
:10134000000c2000800f510039003a0014c0b30097
:10135000658920000b0037000400fb004300dd001e
:10136000050040005001be004000be000040e1000a
:1013700001c8e10002d0e10003d8e1002b003900f0
:101380000442e800f44f5200f3ff3a002700370010
:1013900000012000010020006011b80014c0b3005b
:1013a0000040e10001c8e10002d0e10003d8e10003
:1013b0001e003900450020000000d0008180d200ce
:1013c0000281d2008381d2008502e900faff3a004f
:1013d0000442e800f04f5200f1ff3a0013003700da
:1013e00080002000010020006011b80014c0b3008c
:1013f0000040e10001c8e10002d0e10003d8e100b3
:101400000a0039003c0020000000d0008180d2009a
:101410000281d2008381d2000c06e900faff3a0073
:101420000442e800f54f5200f1ff3a00e4d79f0074
:10143000efd097000100fb003fb19700820f5000f2
:1014400002003d00e2d79f00040037003fb2970042
:10145000800f520001003d00b0b79f00cfb297004f
:101460000500e000040032006380660002003200e4
:101470008502e900c5b79f000de8a3000b0032000c
:101480004fb697003fb09700800f560003003c0016
:101490008000eb00c1b79f00040037004fb19700f8
:1014a0003fb2970004015100c2b79f00efd29700ee
:1014b0000500fb000006eb00dcaf9f00cfb09700fb
:1014c000808f50000200340000805000d0af9f0099
:1014d0000d28a30037003200e18066000d18a3003c
:1014e0000c003200d00220000100e00001003a00b0
:1014f0000080e900ffb09700d7000700e10f40002f
:101500000e0032002fb197000201e800a2b79f0041
:101510000a0037000100e00008003200ffb0970029
:1015200000022000cc000700e10f40000300320061
:101530002fb297000402e800a4b79f00dfaa97002b
:101540000500e0000f0032000006eb00ffb097003e
:1015500000032000c0000700e10f4000030032003c
:101560002fb097000000e800a0b79f000c06e8002d
:10157000dfa89700810f5600f4ff3a000001eb004e
:10158000d2af9f003fb29700c320dd00e08820006b
:101590008080400091b79f004220dd006400500031
:1015a00080b79f006320b900f0af9f006306500032
:1015b00084003700dfaa97000500e0001100320028
:1015c000688066000f003a0000067800ffb09700c0
:1015d00000022000a0000700e10f400003003200dd
:1015e0002fb097000000e800a0b79f000c06e800ad
:1015f000dfa89700810f5600f4ff3a000001eb00ce
:10160000d2af9f00e18066000d18a3000c003200ed
:10161000d00220000100e00001003a000080e90053
:10162000ffb097008c000700e10f4000d5ff3200ab
:101630002fb297000402e800a4b79f00d1ff370043
:101640000100e000cfff3200ffb097000002200051
:1016500081000700e10f4000caff3200afb29700df
:101660008502e800a5b79f00c6ff370000042000f0
:10167000efb09700808f50003100320003003c0033
:101680000100e000080032003e00370000082000a2
:101690006fb19700800f510011003200000c200044
:1016a000800f510037003a001fb097003002be0093
:1016b0002003be000800be000a01be00d9fb0700df
:1016c000a4002000050020006033b800dcfb070008
:1016d00004c3b30004424000e4d79f002900370050
:1016e000d5932000d5b79f000d58a30002003a0003
:1016f000e0942000d0b79f001400200005002000d7
:101700006033b8008fb097008100e9000500330016
:101710000402d0008582d2000683d2008783d200e3
:10172000f9ff37000800be000a01be00bdfb07003c
:101730006f0060005fb197006240780010003700d2
:1017400014002000050020006033b8000c00780071
:101750000000e900050033000402d0008582d200b9
:101760000683d2008783d200f9ff37000800be004d
:101770000a01be00abfb0700674060000043b000f9
:10178000e0d79f00efd097000100fb00ffb097006b
:1017900031000700e10f4000030032002fb1970035
:1017a0000201e800a2b79f001fb297006802520032
:1017b00094b79f008fb29700e482520085b79f00d4
:1017c00063065600d0ff2f003fb197000090b9008c
:1017d0007faa97000000420063005000800f56006f
:1017e000a2ff3a000d38a30010003200dfaa9700d4
:1017f0000500e0000d0034000006eb00ffb097008c
:101800000002200014000700e10f40000300320036
:101810002fb097000000e800a0b79f000c06e8007a
:10182000dfa89700810f5600f4ff3a00be40780011
:10183000e1d79f000104e0005dfd3a002fb0970062
:101840004f0778004f06be004f05be004f04be0094
:10185000ef01b10000000600889fbe000001780083
:1018600001047800b10090000118a3003d0032008f
:101870000198a30003003a00180090000000e00067
:1018800038003a000190a0003104980082047800ea
:10189000f90fb200180090000000e00002003a00ca
:1018a00028009000000c7800ea8f540006003a00ef
:1018b000380090000078a30003003a008800780008
:1018c000d0002000e4ff070098009000580090002e
:1018d000808f50000b0032000100e80010049800d7
:1018e0001800780009587800000c780011c0b30087
:1018f000a098200001487800ea8f540006003200ca
:1019000019003700880078000940780019000700a6
:101910008004780014003700380090000088a3008d
:101920001100320018019000a800900048009000bb
:101930008bfa070098009000810f500004003200dd
:10194000380090000003b300300498008084eb005e
:101950000000eb001004980028009000000c7800b4
:10196000010037008084eb00090078004f04be00be
:10197000000006000200fa00889fbe00a0ff9f0042
:1019800001047800b1009000810478000904b200dd
:10199000020032000000fb00360037000118a300ef
:1019a00005003a000103b3003104980019049800bf
:1019b0000080eb002f003700580090000000e0008e
:1019c00006003a004800900012002000e680570010
:1019d00063fa0700190498002400370028009000db
:1019e0000000e00008003a00609820002004980001
:1019f000000c78002000200050049800100498008b
:101a00000130a0003104980018019000a800900057
:101a10004800900052fa070028009000000c78005f
:101a20000080eb001004980018007800aff89700d1
:101a300001587800000c78002ff89700ea4f50000a
:101a40000a003a00380090000088a3000700320026
:101a500018019000a80090004800900040fa07008c
:101a600019049800a8009000010c7800aff89700c6
:101a70000100fb004f04be000080fa0000000600d9
:020000040000fa
:10000800ac010000ac010000ac010000ac01000034
:10001800ac010000ac010000ac010000ac01000024
:10002800ac010000ac010000ac010000ca120000e5
:10003800ac010000ac010000ee120000ac010000b1
:10004800ac010000d00d0000ac010000a2170000b8
:10005800ac010000ac010000ac010000ac010000e4
:10006800ac010000ac010000ac010000ac010000d4
:10007800ac010000ac010000ac010000ac010000c4
:10008800ac010000ac010000ac010000ac010000b4
:10009800ac010000ac010000ac010000ac010000a4
:1000a800ac010000ac010000ac010000ac01000094
:1000b800ac010000ac010000ac010000ac01000084
:1000c800ac010000ac010000ac010000ac01000074
:1000d800ac010000ac010000ac010000ac01000064
:1000e800ac010000ac010000ac010000ac01000054
:0800f800ac010000ac010000a6
:020000040000fa
:10010800ac010000ac010000ac010000ac01000033
:10011800ac010000ac010000ac010000ac01000023
:10012800ac010000ac010000ac010000ca120000e4
:10013800ac010000ac010000ee120000ac010000b0
:10014800ac010000d00d0000ac010000a2170000b7
:10015800ac010000ac010000ac010000ac010000e3
:10016800ac010000ac010000ac010000ac010000d3
:10017800ac010000ac010000ac010000ac010000c3
:10018800ac010000ac010000ac010000ac010000b3
:10019800ac010000ac010000ac010000ac010000a3
:1001a800ac010000ac010000ac010000ac01000093
:1001b800ac010000ac010000ac010000ac01000083
:1001c800ac010000ac010000ac010000ac01000073
:1001d800ac010000ac010000ac010000ac01000063
:1001e800ac010000ac010000ac010000ac01000053
:0801f800ac010000ac010000a5
:020000040000fa
:101a80000a0a0000466900006e69000073680000e1
:101a900065640000210a00000a0d000000730000c8
:101aa0006e670000200000007374000073200000c7
:101ab00000730000747000002000000073740000c8
:101ac0006d66000020000000737400006d68000067
:101ad0002000000073740000646300002000000018
:101ae000737400006468000020000000737400003c
:101af00064200000006100006463000000610000d9
:101b000064630000200000002d200000436f0000ef
:101b10006d6d0000616e00006420000041630000f4
:101b20006365000070740000656400002e0a000008
:101b30000a0d0000000000002d20000042410000be
:101b400044200000436f00006d6d0000616e0000d6
:101b5000642e00000a0a00000d00000000300000a2
:101b60007825000030340000580d0000000000000f
:101b7000f1f20000f4f80000f1f30000f2f60000ca
:101b8000f4fc0000f8f900001f2f00004f8f000048
:101b90001f3f00002f6f00004fcf00008f9f0000fd
:020000040000fa
:101ba0003600f800809fbe00829fbe00849fbe006a
:101bb000869fbe00881f78000000fa008520a900db
:101bc0000f00370070438000f40040005043800055
:101bd000808f50000300320070c8bf00e14f5000fa
:101be00002003a0059fb0700050037005843800007
:101bf00056fb0700004c78000800e80050438800be
:101c00005bfb07000004e000eeff3a000080fa00f2
:101c10004f0478004f03be004f02be004f01be00cc
:101c20004f00be003600f900004006000200fa0036
:101c300070438000f400400060438000808f5000bb
:101c400005003a00704380006043880060438000d4
:101c5000504388005a0037005143800060438000a1
:101c6000808f50005600360070c8bf000004e000ae
:101c700053003a006043800010407800fb4f500052
:101c80000700320071c8bf000004e00004003a0001
:101c900060438000104078000000fb0037fb070025
:101ca00060438000904078008100fb00010f7800c5
:101cb0000000e800604388001e007800ea0f500032
:101cc0003c0032001e007800ea0f500004003c0087
:101cd0001e007800e80f5000080032003500370081
:101ce0001e007800ed0f5000270032001e00780023
:101cf000fb0f5000160032002e00370070438000aa
:101d00008000e80060438000808f50000a003100ae
:101d10000002200019fb07008000200017fb0700cd
:101d2000604380000080e9006043880060438000d9
:101d3000504388001f003700604380000000e90026
:101d400060438800604380005043880019003700da
:101d500071c8bf00e14f500016003a000040eb0090
:101d600072e8b7000040eb0071e8b70070438000f4
:101d700060438800604380005043880000d42800fe
:101d800006fb07000b00370071c8bf000004e0002d
:101d900008003a00a0002000f8fa07007043800015
:101da00060438800604380005043880010c0b30047
:101db00070e8b70013fb07000004e000fdff3a00e5
:101dc0000080fa00000006000e00fa0010079800dc
:101dd0000000eb00000f78001e0090000000e800fb
:101de00090407800e0c2b30080cf50000300320082
:101df0000000eb0020079800810037001e009000d3
:101e0000104078008000fb001e0090000000e800f9
:101e1000100798006109b90000fd2f00f1ff2f00a5
:101e20000201400083814800320798004307980070
:101e300090002000010020003e019000ce019000a3
:101e4000800f5100818f59002b003e003e00900012
:101e5000ce00900000600100090037000b00370041
:101e60000d0037000f003700110037001300370056
:101e70001500370017003700190037001b00370026
:101e80000000eb00000f78001d003700001020005c
:101e9000000f78001a00370000202000000f7800a3
:101ea0001700370000302000000f780014003700c2
:101eb00000402000000f7800110037000050200083
:101ec000000f78000e00370000602000000f78003f
:101ed0000b00370000702000000f7800080037006a
:101ee00000802000000f78000500370000902000df
:101ef000000f7800020037000000eb00000f7800b0
:101f00001e0090000000e800100798001e009000de
:101f1000104078000000fb006101b90000fd2f00b7
:101f2000f1ff2f0002014000838148005207980012
:101f30006307980090002000010020005e019000df
:101f4000ee019000800f5100818f590028003e0063
:101f50005e009000ee009000006001002600370057
:101f6000080037000a0037000c0037000e00370069
:101f70001000370012003700140037001600370039
:101f8000180037009e0078007a8f40001a00370052
:101f9000320320001e0f410017003700d304200039
:101fa0001e8f410014003700600620001e0f400005
:101fb00011003700010820001e8f40000e0037007e
:101fc000a20920001e0f41000b003700330b200038
:101fd0001e8f410008003700d00c20001e0f40006b
:101fe00005003700610e20001e8f40000200370000
:101ff0000000eb00000f78001e0178002207980017
:102000002e0090000080fa00000006003000fa0068
:102010006400470041d828001700090031587800b3
:102020008001b1007c004700c1d9280012000900de
:10203000315878003001b1007c004700100798004b
:1020400070c8bf00e14f500032013a006043800089
:10205000000f780042002000f1d428001e00780014
:1020600017fb07000000e0001e003a00f0d4280033
:102070004afa070060438000640040006043880023
:10208000604380009040780010c3b30080cf5000c0
:1020900006003a000040eb0074e8b7007602070043
:1020a00064004700100798000f013700604380006c
:1020b0009040780020c3b30080cf500006003a0063
:1020c0000040eb0075e8b700bc0207006400470061
:1020d00010079800040137007c00470010079800a3
:1020e000010137004200200041d528001e00780081
:1020f000f3fa07000000e0001c003a0040d5280079
:1021000026fa0700604380006400400060438800b6
:10211000604380009040780010c3b30080cf50002f
:1021200005003a0010c0b30074e8b700640047002f
:1021300010079800ec003700604380009040780062
:1021400020c3b30080cf500005003a0010c0b30098
:1021500075e8b7006400470010079800e2003700f8
:102160007c00470010079800df0037004200200085
:1021700091d528001e007800d1fa07000000e00089
:102180001c003a0090d5280004fa07006043800044
:102190006400400060438800604380009040780005
:1021a00010c3b30080cf500005003a000040eb00a0
:1021b00074e8b7006400470010079800ca003700b1
:1021c000604380009040780020c3b30080cf50006f
:1021d00005003a000040eb0075e8b70064004700d6
:1021e00010079800c00037007c00470010079800d7
:1021f000bd00370052002000e1d528001e00780005
:10220000affa07000000e0001c003a00e0d528000b
:10221000e2f90700604380006500400060438800e9
:10222000604380009040780010c3b30080cf50001e
:1022300005003a0010c0b30078e8b700640047001a
:1022400010079800a8003700604380009040780095
:1022500020c3b30080cf500005003a0010c0b30087
:1022600079e8b70064004700100798009e00370027
:102270007c004700100798009b00370052002000a8
:1022800041d628001e0078008dfa07000000e0000b
:102290001c003a0040d62800c0f9070060438000c7
:1022a00065004000604388006043800090407800f3
:1022b00010c3b30080cf500005003a000040eb008f
:1022c00078e8b700640047001007980086003700e0
:1022d000604380009040780020c3b30080cf50005e
:1022e00005003a000040eb0079e8b70064004700c1
:1022f000100798007c0037007c004700100798000a
:102300007900370052002000a1d628001e00780076
:102310006bfa07000000e0001c003a00a0d628007d
:102320009ef907006043800065004000604388001c
:10233000604380009040780010c3b30080cf50000d
:1023400005003a0010c0b30076e8b700640047000b
:1023500010079800640037006043800090407800c8
:1023600020c3b30080cf500005003a0010c0b30076
:1023700077e8b70064004700100798005a0037005c
:102380007c004700100798005700370052002000db
:1023900001d728001e00780049fa07000000e0007d
:1023a0001c003a0000d728007cf907006043800039
:1023b00065004000604388006043800090407800e2
:1023c00010c3b30080cf500005003a000040eb007e
:1023d00076e8b70064004700100798004200370015
:1023e000604380009040780020c3b30080cf50004d
:1023f00005003a000040eb0077e8b70064004700b2
:1024000010079800380037007c004700100798003c
:10241000350037004200200061d728001e007800f8
:1024200027fa07000000e0001e003a0060d72800ed
:102430005af9070060438000640040006043880050
:10244000604380009040780010c3b30080cf5000fc
:1024500006003a000040eb0074e8b70026020700cf
:1024600064004700100798001f0037006043800099
:102470009040780020c3b30080cf500006003a009f
:102480000040eb0075e8b700230207006400470036
:1024900010079800140037007c00470010079800d0
:1024a0001100370032002000b1d728001e0078004c
:1024b00003fa07000000e00009003a00f0d7280006
:1024c00036f9070010c0b30071e8b70010c0b300c0
:1024d00072e8b70064004700100798000200370058
:1024e0007c0047001007980070438000604388001c
:1024f00060438000504388001e00900027f90700c9
:1025000040f907000004e000fdff3a000040eb0046
:1025100070e8b7000080fa00000006001400fa001e
:1025200072c8bf00e14f50000c003a000014800058
:10253000801f7800f0da2800801f78000e007800f5
:10254000f9f90700e48757000e00780013f9070037
:102550002cf907000004e000fdff3a000080fa00bb
:10256000000006000000fa00d0f02f0029f9070053
:1025700000002800601088000040200070108800d3
:10258000f0002000a01088000000eb000080fa009e
:10259000000006003600f800809fbe00829fbe004b
:1025a000849fbe00869fbe000000fa0074c8bf0072
:1025b0000004e000010032002f0107008460a90040
:1025c0000080fa004f03be004f02be004f01be0064
:1025d0004f00be003600f900004006003600f8004b
:1025e000809fbe00829fbe00849fbe00869fbe006b
:1025f0000000fa007101070084c0a9000080fa0001
:102600004f03be004f02be004f01be004f00be0090
:102610003600f900004006000000fa003116800084
:1026200000e02f0000806000301688000080eb0082
:1026300040158800c902a900e0ff2f0020f907001b
:102640008080eb00d0f92f0032f90700e0ff2f0067
:1026500034f907008080eb00d0f92f0045f907001e
:102660000080fa00000006000c00fa00008fbe0097
:10267000424798003407980045079800234f980078
:102680002e4890000004e0003c0032004e409000d4
:102690000004e0003400320017003700d04380000f
:1026a000e30f5000020034000000eb00d04388002c
:1026b0005016800080007800f100b300d243800003
:1026c00080db2800624078000080fb000080600012
:1026d000501688000200e800d04388003e009000b9
:1026e000ce009000dff607000080eb008080eb005a
:1026f0001e0f40005e9748001e00be00e00f500015
:10270000e08f5800e5ff3a0057003700d0438000c3
:102710000000e00002003d0030002000d0438800af
:102720005016800080007800f100b300d243800092
:1027300080db2800624078000080fb0000806000a1
:10274000501688000200e900d04388003e00900047
:10275000ce009000c3f607000080eb008080eb0005
:102760001e0f40005e9748001e00be00e00f5000a4
:10277000e08f5800e5ff3a003b0037004e409000e4
:102780000004e0003400320017003700d04380001e
:10279000e70f5000020034000000eb00d043880037
:1027a0005016800080007800f100b300d243800012
:1027b000c0db2800624078000080fb0000806000e1
:1027c000501688000200e800d04388003e009000c8
:1027d000ce009000a3f607000080eb008080eb00a5
:1027e0001e0f40005e9748001e00be00e00f500024
:1027f000e08f5800e5ff3a001b003700d04380000f
:102800000000e00002003d0070002000d04388007e
:102810005016800080007800f100b300d2438000a1
:10282000c0db2800624078000080fb000080600070
:10283000501688000200e900d04388003e00900056
:10284000ce00900087f607000080eb008080eb0050
:102850001e0f40005e9748001e00be00e00f5000b3
:10286000e08f5800e5ff3a000080fa000000060003
:102870000c00fa00008fbe00424798003407980011
:1028800045079800234f98002e4890000004e00070
:102890003c0032004e4090000004e0003400320062
:1028a00017003700e0438000e30f500002003400bf
:1028b0000000eb00e043880051168000000f20006c
:1028c00080807000e243800040dc28006240780095
:1028d0000080fb0000806000501688000200e800c5
:1028e000e04388003e009000ce0090005df60700b7
:1028f0000080eb008080eb001e0f40005e974800d8
:102900001e00be00e00f5000e08f5800e5ff3a00c7
:1029100057003700e04380000000e00002003d0067
:1029200030002000e043880051168000000f200096
:1029300080807000e243800040dc28006240780024
:102940000080fb0000806000501688000200e90053
:10295000e04388003e009000ce00900041f6070062
:102960000080eb008080eb001e0f40005e97480067
:102970001e00be00e00f5000e08f5800e5ff3a0057
:102980003b0037004e4090000004e000340032006d
:1029900017003700e0438000e70f500002003400ca
:1029a0000000eb00e043880051168000000f20007b
:1029b00080807000e243800080dc28006240780064
:1029c0000080fb0000806000501688000200e800d4
:1029d000e04388003e009000ce00900021f6070002
:1029e0000080eb008080eb001e0f40005e974800e7
:1029f0001e00be00e00f5000e08f5800e5ff3a00d7
:102a00001b003700e04380000000e00002003d00b2
:102a100070002000e043880051168000000f200065
:102a200080807000e243800080dc280062407800f3
:102a30000080fb0000806000501688000200e90062
:102a4000e04388003e009000ce00900005f60700ad
:102a50000080eb008080eb001e0f40005e97480076
:102a60001e00be00e00f5000e08f5800e5ff3a0066
:102a70000080fa00000006000200fa000040eb00af
:102a8000004f780078c8bf000004e0002500320045
:102a900076c8bf000004e00011003200d04380007f
:102aa000e30f5000020034000000eb00d043880028
:102ab0005016800000417800f240b300d1438000fe
:102ac00080db280061407800004f61000100e800d1
:102ad000d04388001e80fb00501688003500370068
:102ae000d04380000000e00002003d0030002000e4
:102af000d04388005016800080007800f100b300b9
:102b0000d243800080db2800624078000080fb0018
:102b100000806000501688000200e900d043880061
:102b20002400370076c8bf000004e0001100320026
:102b3000d0438000e70f5000020034000000eb009b
:102b4000d04388005016800080007800f100b30068
:102b5000d2438000c0db2800624078000080fb0088
:102b600000806000501688000200e800d043880012
:102b700010003700d04380000000e00002003d005c
:102b800070002000d043880050168000800078003c
:102b9000f100b300d2438000c0db2800624078001f
:102ba0000080fb0000806000501688000200e900f1
:102bb000d04388000080fa00000006000000fa0000
:102bc00079c8bf000004e0002500320077c8bf00cc
:102bd0000004e00011003200e0438000e30f5000e9
:102be000020034000000eb00e04388005116800032
:102bf000000f200080807000e243800040dc28004d
:102c0000624078000080fb00008060005016880061
:102c10000200e800e043880035003700e043800010
:102c20000000e00002003d0030002000e04388008a
:102c300051168000000f200080807000e243800069
:102c400040dc2800624078000080fb0000806000cb
:102c5000501688000200e900e04388002400370095
:102c600077c8bf000004e00011003200e04380009c
:102c7000e70f5000020034000000eb00e043880042
:102c800051168000000f200080807000e243800019
:102c900080dc2800624078000080fb00008060003b
:102ca000501688000200e800e0438800100037005a
:102cb000e04380000000e00002003d0070002000c2
:102cc000e043880051168000000f200080807000d3
:102cd000e243800080dc2800624078000080fb0036
:102ce00000806000501688000200e900e043880080
:102cf0000080fa00000006000000fa00c902a800e7
:102d000050168000010f200001006000501688005e
:102d10000080fa00000006000000fa00c902a800c6
:102d2000501680006f006000501688000080fa0086
:042d30000000060099
:020000040000fa
:102d34006a0800000a00000002000000560856005d
:102d440008560800000000000000000056080000bb
:102d54001400000000000000740800000a000000d5
:102d6400020000000000010001000000000000005b
:102d740000000000880800000800000000000000b7
:102d8400900800000600000002000000000000009f
:102d9400000000007e0800000a000000000000009f
:102da400500800000600000000000000fa0f0000b8
:102db400060000000000000096080000a0000000cb
:102dc40002000000010000000000000000000a00f2
:102dd400000000000000000000640000000000008b
:102de40000000000e80300000000000000001000e4
:102df400270000000000000000a086000100000081
:102e04000000000040420f000000000000008000ad
:102e140096980000000000000000e100f5050000a5
:102e24000000000000ca9a003b00000000000000ff
:102e3400e40b5400020000000000e800764817008c
:102e4400000000000010a500d4e80000000000000d
:102e5400a0724e0018090000000040007a10f30030
:102e64005a0000000080c600a47e8d00030000000c
:102e740000c16f00f2862300000000008a5d780024
:102e84004563010000006400a7b3b600e00d000034
:102e940000e889000423c7008a0000003609000006
:102ea4002a00000002000000286e75006c6c2900e6
:102eb40000303100323334003536370038394100c0
:102ec400424344004546000030313200333435007b
:102ed40036373800396162006364650066000000bb
:102ee400600900002600000002000000620988005a
:102ef40009000000880909000000000002008600a3
:102f0400090000008609060002010000000000001c
:102f140000000000000006000202000000000000a3
:102f24008609000006000000000000008c09000073
:102f34000200000002000000010000000000000088
:020000040000fa
:102f44003600f800809fbe00829fbe00849fbe00b2
:102f5400869fbe000000fa000040eb0009f707005e
:102f640020448800e08720003ef6070011448000da
:102f7400f0ff20000088b90007f707008560a9006a
:102f84000080fa004f03be004f02be004f01be0096
:102f94004f00be003600f900004006000000fa00b1
:102fa40000852000f0438800a0ff20000044880032
:102fb400e087200047f6070060662200804488000e
:102fc40090992100904488000000eb00a044880000
:102fd400e18720000089200049f6070010ff2f0038
:102fe400f7f60700f1ff2000d0f82f0009f70700db
:102ff4000cf7070050ff2f0011f707000001eb004a
:103004008000eb00e0ff2f0021f70700311680005d
:103014000000210000807000301688000080eb0062
:1030240040158800a982a900a3c2bf007f406000a8
:10303400a3e2b700c000200030158800a5c2bf007d
:10304400f041b300a5e2b700412a20009140780086
:10305400f0c3b30000c07000a4e2b700a4e2a9006a
:10306400112a200091407800c0cfb30000c0600056
:10307400a1e2b700012a20009140780000ceb300fd
:1030840000c07000a0e2b700a042a800212a2000de
:103094009140780030ccb30000c06000a2e2b700d9
:1030a4000000eb0050158800a1e2a8008560a9008b
:1030b400910920009140780000c7b30000c070005f
:1030c40099e0b7008d60a800a0002000304488007b
:1030d4000000eb00204488000080fa000000060095
:1030e4000000fa0004000700cffa0700c6fb07003f
:1030f40009fd0700fcff37000000fa0018fd070077
:1031040044fd0700a5ff07000080fa000000060048
:00000001FF
