:020000040000fa
:080000000001040000000000f3
:020000040000fa
:100200004f842000a0fe20000001880000000000b4
:100210000c00070020d12000010020001100070081
:10022000000020000000e000020032000000020098
:1002300000000000aa0d0200000000000040da00eb
:100240000000fe004440a900400420000000e0003f
:100250000300320000002000a00188004440a800f4
:100260000000060091018800800078000000eb008b
:1002700015003700e280400032a0b4009101ba00be
:10028000e280400032a0b4009102ba00e280400057
:1002900032a0b4000002eb00472bde00f507b200ed
:1002a000602ce10004003a000059eb008301e900f2
:1002b000fdff3e00040037006128e100010032002c
:1002c0000082eb00040007001101ba000200e00008
:1002d000e8ff3a00000006003159ba008301e90046
:1002e0000c0032002159ba008301e90008003200f5
:1002f0000400e00003003a00e280400032a0b400b5
:10030000f5ff370011d9ba008301e900faff3a007e
:100310008100e800e180400032a0b4000000060047
:10032000881f78008a1f78004400f800080f20001a
:10033000280288000004900010059000a0009000a2
:1003400030019000c00190000300ca000280ca0082
:100350000030cb001a00cd004604c3000100ca00e3
:100360004604c0001e04c0000605c0000100cd0008
:1003700021009800050d7800eaba9700052578005d
:100380004400f9004f0578004f0478000000060093
:10039000801f78004000b0000008eb004f0078009c
:1003a000801f7800100090000018eb000018eb0090
:1003b0000008eb004f007800000006004400f80041
:1003c000020f200022028800910078003000ca004d
:1003d0003080ca000000cb002080ca000000cb00a3
:1003e0003100cd004000ca000000cb000000cb006f
:1003f0000010cb003100cd001180cc004400f9008a
:10040000000006000cc2bf0066406000e64f5000ce
:1004100002003a009010800000000600901080005a
:10042000f00fb200000006000ec2bf0061006000c5
:1004300000000600800078000cc2bf00664060002b
:10044000e64f500001003200f10fb2008110880029
:10045000000006000fc2bf000004a200610060009f
:100460000000060080007800000178000cc2bf0088
:1004700066406000e64f500010003a00050037006b
:100480000fc2bf000018a300fdff3a0082108800d1
:100490008180e800110178000200e000f8ff3a00d6
:1004a000000006000fc2bf000018a300fdff3a00c5
:1004b0000100fb00801088000201e80092407800f3
:1004c0000104e000f7ff3a00000006008520a900c3
:1004d0008540a900e7416000c419dd0081092000c2
:1004e00091407800f2c8b30082c0600083c0700001
:1004f0008000fd0098e0b7008000fd0080017800da
:100500000307b200c419de00910920009140780071
:1005100082cfb30082c0600083c070008000fd0005
:1005200099e0b7008000fd00680160004311de0023
:1005300002414100d1082000914078000114a1003f
:1005400082c070008000fd008de0b7008000fd00db
:100550000008b2004700de004200dd00d1082000a4
:10056000914078000124a10080c070000100780053
:100570008de0b700000006008460a900e74160003c
:10058000c419dd005109200091407800f2c8b30081
:1005900082c0600083c070008000fd0095e0b7005d
:1005a0008000fd00680060004300de004300dd00c5
:1005b000c1082000914078000134a10080c0700083
:1005c000010078008ce0b700000006000021ef0079
:1005d00011088800200888000000060084c0a900d7
:1005e000e7416000710920009140780082cfb3009c
:1005f00082c0600083c070008000fd0097e0b700fb
:100600008000fd00680060004300de004600dd0061
:10061000c1082000914078000164a10080c07000f2
:10062000010078008ce0b700000006000621ef0012
:1006300061088800800888001061a9000000060099
:100640008440a900e74160005109200091407800f2
:1006500082cfb30082c0600083c070008000fd00c4
:1006600095e0b7008000fd00680060004300de00f8
:100670004200dd00c1082000914078000124a10063
:1006800080c07000010078008ce0b7000000060018
:100690000002780080cfb3008461b600010c8800ae
:0c06a000120c8800240c880000000600ea
:020000040000fa
:10000800be0d0000be0d0000be0d0000be0d0000bc
:10001800be0d0000be0d0000be0d0000be0d0000ac
:10002800be0d0000be0d0000be0d0000300900002e
:10003800be0d0000be0d000054090000be0d0000fa
:10004800be0d00009a030000be0d0000be0d0000aa
:10005800be0d0000be0d0000be0d0000be0d00006c
:10006800be0d0000be0d0000be0d0000be0d00005c
:10007800be0d0000be0d0000be0d0000be0d00004c
:10008800be0d0000be0d0000be0d0000be0d00003c
:10009800be0d0000be0d0000be0d0000be0d00002c
:1000a800be0d0000be0d0000be0d0000be0d00001c
:1000b800be0d0000be0d0000be0d0000be0d00000c
:1000c800be0d0000be0d0000be0d0000be0d0000fc
:1000d800be0d0000be0d0000be0d0000be0d0000ec
:1000e800be0d0000be0d0000be0d0000be0d0000dc
:0800f800be0d0000be0d00006a
:020000040000fa
:10010800be0d0000be0d0000be0d0000be0d0000bb
:10011800be0d0000be0d0000be0d0000be0d0000ab
:10012800be0d0000be0d0000be0d0000300900002d
:10013800be0d0000be0d000054090000be0d0000f9
:10014800be0d00009a030000be0d0000be0d0000a9
:10015800be0d0000be0d0000be0d0000be0d00006b
:10016800be0d0000be0d0000be0d0000be0d00005b
:10017800be0d0000be0d0000be0d0000be0d00004b
:10018800be0d0000be0d0000be0d0000be0d00003b
:10019800be0d0000be0d0000be0d0000be0d00002b
:1001a800be0d0000be0d0000be0d0000be0d00001b
:1001b800be0d0000be0d0000be0d0000be0d00000b
:1001c800be0d0000be0d0000be0d0000be0d0000fb
:1001d800be0d0000be0d0000be0d0000be0d0000eb
:1001e800be0d0000be0d0000be0d0000be0d0000db
:0801f800be0d0000be0d000069
:020000040000fa
:1006ac002d200000436f00006d6d0000616e000096
:1006bc00642000004163000063650000707400005a
:1006cc00656400002e0a00000a0d00000000000006
:1006dc002d2000004241000044200000436f000028
:1006ec006d6d0000616e0000642e00000a0a0000af
:1006fc000d00000000000000f1f20000f4f8000012
:10070c00f1f30000f2f60000f4fc0000f8f9000030
:10071c001f2f00004f8f00001f3f00002f6f0000a5
:08072c004fcf00008f9f000079
:020000040000fa
:100734003600f800809fbe00829fbe00849fbe00ea
:10074400869fbe00881f78000000fa008520a9005b
:100754000f00370090418000f40040007041800099
:10076400808f50000300320034c8bf00e14f5000b6
:1007740002003a0022ff070005003700784180009c
:100784001fff0700004c78000800e8007041880053
:1007940024ff07000004e000eeff3a000080fa00a6
:1007a4004f0478004f03be004f02be004f01be004d
:1007b4004f00be003600f900004006000200fa00b7
:1007c40090418000f400400080418000808f500000
:1007d40005003a00904180008041880080418000fb
:1007e400704188003b0037007141800080418000e7
:1007f400808f50003700360034c8bf000004e0008a
:1008040034003a0080418000104078000000fb0072
:1008140007ff070081418000114078000000fb00c1
:10082400000f78000100e800804188001e00780075
:10083400ea0f5000240032001e007800ed0f500033
:10084400190032001e007800e80f50000100320049
:100854001d003700904180008000e8008041800046
:10086400808f50000a00310000022000f0fe0700d3
:1008740080002000eefe0700804180000080e90037
:100884008041880080418000704188000e0037005c
:10089400804180000000e9008041880080418000a0
:1008a4007041880008003700a0002000e0fe070027
:1008b4009041800080418800804180007041880020
:1008c40010c0b30034e8b700e1fe07000004e00004
:1008d400fdff3a000080fa00000006000e00fa0056
:1008e400100798000000eb00000f78001e00900035
:1008f4000000e80090407800e0c2b30080cf5000d0
:10090400030032000000eb0020079800810037004c
:100914001e009000104078008000fb001e00900034
:100924000000e800100798006109b90000fd2f00dd
:10093400f1ff2f0002014000838148003207980034
:100944004307980090002000010020003e01900021
:10095400ce019000800f5100818f59002b003e0082
:100964003e009000ce0090000060010009003700b6
:100974000b0037000d0037000f003700110037005f
:10098400130037001500370017003700190037002f
:100994001b0037000000eb00000f78001d0037003b
:1009a40000102000000f78001a00370000202000fb
:1009b400000f78001700370000302000000f780087
:1009c4001400370000402000000f780011003700a9
:1009d40000502000000f78000e0037000060200057
:1009e400000f78000b00370000702000000f780023
:1009f4000800370000802000000f78000500370051
:100a040000902000000f7800020037000000eb0087
:100a1400000f78001e0090000000e8001007980006
:100a24001e009000104078000000fb006101b90036
:100a340000fd2f00f1ff2f000201400083814800d8
:100a440052079800630798009000200001002000de
:100a54005e019000ee019000800f5100818f5900db
:100a640028003e005e009000ee009000006001004f
:100a740026003700080037000a0037000c00370052
:100a84000e00370010003700120037001400370042
:100a940016003700180037009e0078007a8f400057
:100aa4001a003700320320001e0f410017003700e0
:100ab400d30420001e8f410014003700600620007c
:100ac4001e0f400011003700010820001e8f400057
:100ad4000e003700a20920001e0f41000b00370052
:100ae400330b20001e8f410008003700d00c20007b
:100af4001e0f400005003700610e20001e8f4000cd
:100b0400020037000000eb00000f78001e0178009f
:100b1400220798002e0090000080fa0000000600d2
:100b24006c00fa000e80e800613528001700090007
:100b3400315878008001b1007a004700e13628007e
:100b440012000900315878003001b1007a0f4700d3
:100b540034c8bf00e14f5000b2013a008141800027
:100b6400114078000001fb000100e800804188008a
:100b740030072000800f5100010032009e01370031
:100b8400300720002afe070080418000503798007b
:100b94005e309000904078000040eb0000ef980039
:100ba40040c7b30080cf500002003a0011c0b30028
:100bb40001ef9800de3090000100e80080418800d9
:100bc4000ee890000004e0008b0132004007200092
:100bd40017fe070081418000114078000000fb00ef
:100be400303798000100e80080418800d0062000da
:100bf400be309000808f50000b013200d0062000e0
:100c0400be309000808f500009003c004006200058
:100c1400be309000808f50007000320060062000cb
:100c2400be309000808f50006e0132007101370099
:100c340000072000be309000808f50003600320044
:100c440030072000be309000808f50000100320039
:100c54006801370030072000f5fd0700804180005f
:100c6400203798002e309000904078000040eb0030
:100c740020e7980000c2b30080cf500002003a0081
:100c840011c0b30021e79800ae3090000100e800e5
:100c9400804188002ee090000004e00056013200fc
:100ca400804180009040780010c3b30080cf500092
:100cb40004003a000e8fe80010c0b3001ae8b70031
:100cc4004d01370081418000013798000e309000bb
:100cd400904078000040eb0060df980020c3b30030
:100ce40080cf500002003a0011c0b30061df9800c9
:100cf4008e3090000100e800804188006ed890009a
:100d04000004e0003c0132000e8fe80010c0b30084
:100d14001be8b7003801370000072000c4fd0700b6
:100d240081418000612f98006e28900090407800e7
:100d34000040eb0020df980000c2b30080cf5000d9
:100d440002003a0011c0b30021df9800ee289000a1
:100d54000100e800804188002ed890000004e000e3
:100d640025013200804180009040780010c3b30018
:100d740080cf500004003a000e8fe8000040eb00e2
:100d84001ae8b7001c01370081418000412f980008
:100d94004e289000904078000040eb0060d7980007
:100da40020c3b30080cf500002003a0011c0b3004a
:100db40061d79800ce2890000100e80080418800a7
:100dc4006ed090000004e0000b0132000e8fe800aa
:100dd4000040eb001be8b700070137004006200085
:100de40093fd0700804180009040780000c2b3006a
:100df40080cf50001f003a00804180000000e800ce
:100e040080418800804180009040780010c3b30086
:100e140080cf500003003a000e8fe800f302070071
:100e2400f500370081418000212f98002e28900082
:100e3400904078000040eb0020d7980020c3b30016
:100e440080cf500002003a0011c0b30021d79800af
:100e5400ae2890000100e800804188002ed0900068
:100e64000004e000e40032000e8fe800e602070010
:100e7400e100370081418000114078000000fb0050
:100e8400002f98000100e80080418800300620000f
:100e94008e289000808f50000500320080062000cc
:100ea4008e289000808f500030003200d20037002e
:100eb40080418000702798007e2090009040780048
:100ec4000040eb0040cf980000c2b30080cf500038
:100ed40002003a0011c0b30041cf9800fe209000f8
:100ee4000100e800804188004ec890000004e00042
:100ef400c1003200804180009040780010c3b300ec
:100f040080cf500004003a000e8fe80010c0b300f8
:100f14001ce8b700b80037008141800051279800d1
:100f24005e209000904078000040eb0000cf9800d5
:100f340020c3b30080cf500002003a0011c0b300b8
:100f440001cf9800de2090000100e8008041880075
:100f54000ec890000004e000a70032000e8fe800e5
:100f640010c0b3001de8b700a30037008141800022
:100f7400312798003e209000904078000040eb001c
:100f840040c7980000c2b30080cf500002003a006e
:100f940011c0b30041c79800be2090000100e800d2
:100fa400804188004ec090000004e00092003200ae
:100fb400804180009040780010c3b30080cf50007f
:100fc40004003a000e8fe8000040eb001ce8b70074
:100fd4008900370081418000112798001e2090006d
:100fe400904078000040eb0000c7980020c3b30095
:100ff40080cf500002003a0011c0b30001c798002e
:101004009e2090000100e800804188000ec09000fe
:101014000004e000780032000e8fe8000040eb008e
:101024001de8b70074003700d006200000fd07005b
:1010340081418000114078000000fb00701f98007f
:101044000100e8008041880060062000fe1890003e
:10105400808f50000500320080062000fe189000aa
:10106400808f5000300032006300370080418000e0
:10107400601f98006e189000904078000040eb00cc
:10108400207f980000c2b30080cf500002003a00d5
:1010940011c0b300217f9800ee1890000100e80011
:1010a400804188002e7890000004e0005200320055
:1010b400804180009040780010c3b30080cf50007e
:1010c40004003a000e8fe80010c0b3001ee8b70019
:1010d4004900370081418000411f98004e1890005c
:1010e400904078000040eb006077980020c3b30084
:1010f40080cf500002003a0011c0b300617798001d
:10110400ce1890000100e800804188006e709000c5
:101114000004e000380032000e8fe80010c0b30075
:101124001fe8b7003400370081418000211f980078
:101134002e189000904078000040eb002077980033
:1011440000c2b30080cf500002003a0011c0b300c7
:1011540021779800ae1890000100e80080418800d3
:101164002e7090000004e0002300320080418000d3
:101174009040780010c3b30080cf500004003a00c0
:101184000e8fe8000040eb001ee8b7001a0037009d
:1011940081418000011f98000e1890009040780053
:1011a4000040eb00606f980020c3b30080cf500074
:1011b40002003a0011c0b300616f98008e189000cd
:1011c4000100e800804188006e6890000004e0009f
:1011d400090032000e8fe8000040eb001fe8b70062
:1011e400050037006006200091fc07000e8fe80020
:1011f400010037007a0f4700904180008041880049
:1012040080418000704188001e00780094fc070033
:101214008ffc07000004e000fdff3a000040eb00f3
:1012240034e8b7000080fa00000006000000fa006d
:10123400e0f02f00a4fc07000000280060108800e4
:101244000040200070108800f0002000a0108800ea
:101254000000eb000080fa00000006003600f800f1
:10126400809fbe00829fbe00849fbe00869fbe00fa
:101274000000fa001ac8bf000004e00001003200b8
:10128400340107008460a9000080fa004f03be0007
:101294004f02be004f01be004f00be003600f900f1
:1012a400004006003600f800809fbe00829fbe000a
:1012b400849fbe00869fbe000000fa0078010700ec
:1012c40084c0a9000080fa004f03be004f02be0094
:1012d4004f01be004f00be003600f900004006007a
:1012e4000000fa000000eb0030168800f0ff200038
:1012f4004015880090ff2f009efc07008080eb00c3
:10130400d0f92f00b0fc070090ff2f00b2fc0700bb
:101314008080eb00d0f92f00c3fc07000080fa00a6
:10132400000006000c00fa00008fbe00424798003f
:101334003407980045079800234f98002e489000e2
:101344000004e0003e0032004e4090000004e00043
:10135400360032001800370000418000e30f5000cf
:10136400020034000000eb000041880050168000a9
:1013740000017800f200b300014180002038280009
:1013840000804000104078000080fb0000006100f5
:10139400501688000100e800004188003e009000db
:1013a400ce009000dc0107000080eb008080eb00a1
:1013b4001e0f40005e9748001e00be00e00f500064
:1013c400e08f5800e4ff3a005a00370000418000e3
:1013d4000000e00002003d003000200000418800d1
:1013e4005016800000017800f200b3000141800033
:1013f4002038280000804000104078000080fb0066
:1014040000006100501688000100e90000418800d6
:101414003e009000ce009000bf0107000080eb006a
:101424008080eb001e0f40005e9748001e00be0047
:10143400e00f5000e08f5800e4ff3a003d00370011
:101444004e4090000004e0003600320018003700df
:1014540000418000e70f5000020034000000eb0060
:10146400004188005016800000017800f200b300ab
:10147400014180006038280000804000104078005e
:101484000080fb0000006100501688000100e800a5
:10149400004188003e009000ce0090009e010700ad
:1014a4000080eb008080eb001e0f40005e97480038
:1014b4001e00be00e00f5000e08f5800e4ff3a0029
:1014c4001c003700004180000000e00002003d00e5
:1014d4007000200000418800501680000001780050
:1014e400f200b30001418000603828000080400011
:1014f400104078000080fb00000061005016880056
:101504000100e900004188003e009000ce009000f8
:10151400810107000080eb008080eb001e0f40007b
:101524005e9748001e00be00e00f5000e08f580098
:10153400e4ff3a000080fa00000006000c00fa0004
:10154400008fbe0042479800340798004507980072
:10155400234f98002e4890000004e0003e00320023
:101564004e4090000004e0003600320018003700be
:1015740010418000e30f5000020034000000eb0033
:101584001041880051168000000f20000081700077
:1015940011418000e03828000080400010407800ad
:1015a4000080fb0000006100501688000100e80084
:1015b400104188003e009000ce00900056010700c4
:1015c4000080eb008080eb001e0f40005e97480017
:1015d4001e00be00e00f5000e08f5800e4ff3a0008
:1015e4005a003700104180000000e00002003d0076
:1015f400300020001041880051168000000f2000a8
:101604000081700011418000e03828000080400013
:10161400104078000080fb00000061005016880034
:101624000100e900104188003e009000ce009000c7
:10163400390107000080eb008080eb001e0f4000a2
:101644005e9748001e00be00e00f5000e08f580077
:10165400e4ff3a003d0037004e4090000004e000f3
:10166400360032001800370010418000e70f5000a8
:10167400020034000000eb00104188005116800085
:10168400000f2000008170001141800020392800e3
:1016940000804000104078000080fb0000006100e2
:1016a400501688000100e800104188003e009000b8
:1016b400ce009000180107000080eb008080eb0052
:1016c4001e0f40005e9748001e00be00e00f500051
:1016d400e08f5800e4ff3a001c00370010418000fe
:1016e4000000e00002003d0070002000104188006e
:1016f40051168000000f200000817000114180000d
:101704002039280000804000104078000080fb0051
:1017140000006100501688000100e90010418800b3
:101724003e009000ce009000fb0007000080eb001c
:101734008080eb001e0f40005e9748001e00be0034
:10174400e00f5000e08f5800e4ff3a000080fa00f8
:10175400000006000000fa001ec8bf000004e000fc
:10176400270032001cc8bf000004e0001200320051
:1017740000418000e30f5000020034000000eb0041
:10178400004188005016800000017800f200b30088
:10179400014180002038280000804000104078007b
:1017a4000080fb0000006100501688000100e80082
:1017b4000041880038003700004180000000e0004c
:1017c40002003d00300020000041880050168000d7
:1017d40000017800f200b3000141800020382800a5
:1017e40000804000104078000080fb000000610091
:1017f400501688000100e9000041880026003700e7
:101804001cc8bf000004e000120032000041800048
:10181400e70f5000020034000000eb000041880094
:101824005016800000017800f200b30001418000ee
:101834006038280000804000104078000080fb00e1
:1018440000006100501688000100e8000041880093
:1018540011003700004180000000e00002003d005c
:1018640070002000004188005016800000017800bc
:10187400f200b3000141800060382800008040007d
:10188400104078000080fb000000610050168800c2
:101894000100e900004188000080fa000000060011
:1018a4000000fa001fc8bf000004e0002700320057
:1018b4001dc8bf000004e000120032001041800087
:1018c400e30f5000020034000000eb0010418800d8
:1018d40051168000000f200000817000114180002b
:1018e400e038280000804000104078000080fb00b1
:1018f40000006100501688000100e80010418800d3
:1019040038003700104180000000e00002003d0074
:10191400300020001041880051168000000f200084
:101924000081700011418000e038280000804000f0
:10193400104078000080fb00000061005016880011
:101944000100e90010418800260037001dc8bf00cf
:101954000004e0001200320010418000e70f500044
:10196400020034000000eb00104188005116800092
:10197400000f2000008170001141800020392800f0
:1019840000804000104078000080fb0000006100ef
:10199400501688000100e80010418800110037004b
:1019a400104180000000e00002003d0070002000b3
:1019b4001041880051168000000f20000081700043
:1019c4001141800020392800008040001040780038
:1019d4000080fb0000006100501688000100e9004f
:1019e400104188000080fa00000006000000fa00a0
:1019f40050168000010f200001006000501688007e
:101a04000080fa00000006000000fa005016800072
:101a14006f006000501688000080fa000000060085
:020000040000fa
:101a24002e0800000800000002000000060806005e
:101a3400080608000000000006080000140000006a
:101a4400000000001a0800000a0000000200000064
:101a54000000010001000000000000000000000080
:101a64003608000008000000000000003e080000e6
:101a7400060000000200000000000000000000005a
:101a8400240800000a000000000000000008000014
:101a94000600000000000000fa0f0000060000002d
:081aa40000000000000000003a
:020000040000fa
:101aac000000fa000080200020418800a0ff2000e8
:101abc00304188004082200032fa070090992500be
:101acc00f04188009099210000428800608f20002e
:101adc001042880041822000e083200034fa070085
:101aec0050ff2f00d3fa07000001eb008000eb0041
:101afc00e0ff2f00e3fa070080eb2500604188002f
:101b0c00b09f2300504188000080fa0000000600be
:101b1c00f03fb1000180b10006003500ee03090072
:101b2c0000000000403fb1000180b100fbff3d0010
:101b3c001000b000203fb00002003500008009000a
:101b4c0000000000000006000000fa00030007007f
:101b5c0018fb0700f0fb0700fdff37000000fa0040
:101b6c00b0fd0700dcfd07000080fa000000060055
:020000040000fa
:041b7c000000fe0067
:00000001FF
